:020000040801F1
:10000000A81B002045310108890701088B0701085A
:100010008F070108930701089707010800000000F7
:100020000000000000000000000000009B07010825
:100030009D070108000000009F070108A1070108B3
:100040005F3101085F3101085F3101085F3101084C
:100050005F3101085F3101085F3101085F3101083C
:100060005F3101085F3101085F3101085F3101082C
:100070005F3101085F3101085F3101085F3101081C
:100080005F3101085F3101085F3101085F3101080C
:10009000230D01085F3101085F3101085F3101085C
:1000A0005F3101085F3101085F3101085F310108EC
:1000B0005F3101085F310108410E01085F3101081D
:1000C0005F3101085F3101085F3101085F310108CC
:1000D0005F310108BB3001085F310108652C010860
:1000E0005F3101085F3101085F3101085F310108AC
:1000F0005F3101085F3101085F3101085F3101089C
:100100005F3101085F310108672E01085F31010886
:100110005F3101085F3101085F310108E52D0108F9
:100120005F3101085F3101085F3101085F3101086B
:100130005F3101085F3101085F3101085F3101085B
:100140006B0D01085F3101085F3101085F31010863
:100150005F3101085F3101085F3101085F3101083B
:100160005F3101085F3101085F3101085F3101082B
:100170005F3101085F3101085F3101085F3101081B
:100180005F3101085F31010800F002F800F0B2F8B9
:100190000AA090E8000C82448344AAF10107DA45E2
:1001A00001D100F0A7F8AFF2090EBAE80F0013F082
:1001B000010F18BFFB1A43F00103184748D2000093
:1001C00068D200000A444FF0000C10F8013B13F015
:1001D000070408BF10F8014B1D1108BF10F8015BA0
:1001E000641E05D010F8016B641E01F8016BF9D193
:1001F00013F0080F1EBF10F8014BAD1C0C1B09D1EA
:100200006D1E58BF01F801CBFAD505E014F8016B5B
:1002100001F8016B6D1EF9D59142D6D370470000ED
:100220000023002400250026103A28BF78C1FBD8FF
:10023000520728BF30C148BF0B6070476E290BF0D2
:10024000ED8470290BF06D8266290CF09887652982
:100250000CF0958767290CF0928761290CF0918743
:1002600003681B0A28BF41F0800169290BF09A84BA
:1002700064290BF0978475290BF094846F290BF097
:10028000BD8578290BF03982E9290BF05785E429DF
:100290000BF05485F5290BF05185EF290BF0BA8549
:1002A000F8290BF038820368DB0928BF41F0800190
:1002B00063290CF0ED8173290CF0F281E3290CF035
:1002C000FD81F3290CF00282002070471FB50CF06D
:1002D00051FF0CF04DFA0400002000210CF034FF17
:1002E000401C6060002000210CF018FFE0601FBD82
:1002F00010B510BD0CF00EFA1146FFF7E7FF00F045
:10030000E5F90CF0E7FA03B4FFF7F2FF03BC02F0E3
:1003100075FE00001CB504469FEDFB0A8DED010A39
:100320009FEDF90A8DED000A60680190A0680090C9
:10033000207855282FD16078AA282CD1F34800685E
:1003400008B9012000E00020F0490860A078F049D9
:100350000870E078012806D007280CD008280FD0B4
:10036000092817D111E06079DDED000A9DED010A41
:1003700001F0DFFD0EE0617948B202F0B6F909E064
:10038000617948B202F0BBF904E0617948B202F049
:1003900048FA00BF00BF1CBD10B5DE48006878B940
:1003A000DD480088C01358B1C822DC49DC480BF096
:1003B000D2FADB48FFF7AEFF0020D749088005E0FE
:1003C000D4480068012801D101F05AFD10BD012870
:1003D00006D1D449C979D44A1170D249897951706A
:1003E000022806D1CF49C979D04A1170CD498979FF
:1003F00051707047012806D1CA494979CC4A117019
:10040000C84909795170022806D1C6494979C94AB3
:100410001170C4490979517070471CB50246012A10
:1004200044D1C04B5B7A1B12F3B1BE4B1C7A5B7A92
:10043000C3EB032323444FF6FF74E31A99B200EE93
:10044000101AB8EE400ADFEDBC0A20EE200ADFEDFC
:10045000BB0A80EE201A8DED001A9DED000AB1EE68
:10046000400A8DED000A14E0AE4B1C7A5B7AC3EBB8
:100470000323234499B200EE101AB8EE400ADFEDD0
:10048000AE0A20EE200ADFEDAD0A80EE201A8DEDD7
:10049000001A9DF80030AA4C23709DF8013063705B
:1004A0009DF80230A3709DF80330E370022A44D116
:1004B0009C4B5B7A1B12F3B19A4B1C7A5B7AC3EBB1
:1004C000032323444FF6FF74E31A98B200EE100A98
:1004D000B8EE400ADFED980A20EE200ADFED970A19
:1004E00080EE201A8DED011A9DED010AB1EE400A51
:1004F0008DED010A14E08B4B1C7A5B7AC3EB03236E
:10050000234498B200EE100AB8EE400ADFED8A0AE2
:1005100020EE200ADFED890A80EE201A8DED011A07
:100520009DF80430874C23709DF8053063709DF86A
:100530000630A3709DF80730E3701CBD01280CD174
:100540007849C979804A117076498979517075491D
:100550004979917073490979D17002280CD1714998
:10056000C9797A4A11706F49897951706D49497911
:1005700091706C490979D170704770B500240025DD
:10058000204604EBD0714910A4EB410100293AD177
:1005900000BF2FE0642002F0C9FC62480088A0F28E
:1005A000812040B1012814D0B0F5807F0AD0A0F29C
:1005B0000110E0B914E00120FFF7C0FF0120FFF7B0
:1005C0002CFF14E00120FFF715FF0120FFF7FFFECD
:1005D0000DE00220FFF7B2FF0220FFF71EFF06E04A
:1005E0000220FFF707FF0220FFF7F1FE00BF00BF68
:1005F000681CC5B2042DCDDB032001F013FD0220E1
:1006000001F010FD36E000252FE0642002F08EFCA2
:1006100044480088A0F2812040B1012814D0B0F5F0
:10062000807F0AD0A0F20110E0B914E00120FFF7AA
:1006300085FF0120FFF7F1FE14E00120FFF7DAFE4D
:100640000120FFF7C4FE0DE00220FFF777FF022034
:10065000FFF7E3FE06E00220FFF7CCFE0220FFF7E3
:10066000B6FE00BF00BF681CC5B2022DCDDB032063
:1006700001F0D8FC00F03DFE601C84B270BD10B5E6
:100680004FF4A06002F07EFDA82002F035FC4FF48C
:10069000E13002F0C0FC00F08DF900F0ABF900F0A1
:1006A00025FA40F6B83002F089FC0AF0E8FA00209A
:1006B00000F048FE012000F045FE00F0D7FB02F0FC
:1006C000C3F84FF4E13002F0FAFA10BD0024FFF74E
:1006D000D6FF55E01E491F4800F0FAFA601C84B2AC
:1006E000FFF74BFFFFF758FE082002F067FC1420CD
:1006F00094FBF0F100FB114028B90448001D00688C
:1007000050BB01202AE02BE000000000A4824242FE
:10071000260100201002434250010020780E0020E4
:10072000300900200C0A00201A0100201C010020C2
:100730001E01002020010020004044440014CD4A46
:1007400012010020160100200A0100200E010020E5
:10075000700C002000640040FFE700200949086099
:100760000A2094FBF0F100FB114048B90548001F36
:10077000006808B9012000E000200249091F086054
:10078000A8E70000A8824242704700BFFEE700BF12
:10079000FEE700BFFEE700BFFEE770477047704707
:1007A000704700000CB5002001900090764800686A
:1007B00040F480307449086000BF7348006800F45A
:1007C000003000900198401C0190009818B90198E1
:1007D000B0F5A04FF1D16C48006800F4003010B1C2
:1007E0000120009001E0002000900098012846D1EF
:1007F00065484030006840F08050634940310860EF
:100800006248006840F44040604908605E48083033
:1008100000685D49083108600846006840F40040FF
:1008200008600846006840F4A05008605848091F56
:100830000860081F006840F08070091F086000BF52
:100840005148006800F000700028F9D040F20570AF
:10085000504908604C480830006820F003004A49BD
:10086000083108600846006840F00200086000BFD8
:1008700045480830006800F00C000828F8D10CBD8D
:1008800010B54548006840F47000434908603E4890
:10089000006840F001003C49086000203A490831F6
:1008A0000860394800683D490840374908603C48BD
:1008B000091D0860081F006820F48020091F0860D7
:1008C000002031490C310860FFF76CFF4FF00060E9
:1008D00031498039086010BD70B500200022022324
:1008E00000240221284D08352D6805F00C0020B1A8
:1008F000042806D0082834D107E02A4D2A4E356056
:1009000033E02A4D284E35602FE01F4D2D1D2D68F8
:10091000C5F380541C4D2D1D2D6805F03F0154B1C9
:10092000224DB5FBF1F5184E361D3668C6F3881614
:1009300005FB06F209E01B4DB5FBF1F5124E361D25
:100940003668C6F3881605FB06F20F4D2D1D2D687F
:10095000C5F301456D1C6B00B2FBF3F5124E35601B
:1009600003E0104D104E356000BF00BF064D083546
:100970002D68C5F303150E4E705D0B4D2D68C540F7
:10098000094E356070BD0000003802400070004024
:1009900008544007003C024088ED00E0FFFFF6FEEF
:1009A000103000240024F4000000002000127A001F
:1009B000040000201CB50121202002F077FF4FF435
:1009C000C060009001208DF8040000208DF8060022
:1009D00003208DF8050001208DF8070069460448C2
:1009E00002F0C6FC4FF4C061014802F03DFD1CBDA1
:1009F000001402401CB50121112002F057FF1C20F9
:100A0000009000208DF8040003208DF805000120DF
:100A10008DF8070069466B4802F0AAFC012000909F
:100A200002208DF807006946674802F0A1FC1CBD52
:100A300010B5044614B10120644908706348007879
:100A4000002837D010215F4802F0F4FC78B108216B
:100A50005C4802F0EFFC50B104215A4802F0EAFC75
:100A600028B10121584802F0E5FC012822D10A20D2
:100A700002F0A4FA0020554908701021514802F0F4
:100A8000D9FC08B9012010BD08214E4802F0D2FC63
:100A900008B90220F7E704214A4802F0CBFC08B964
:100AA0000320F0E70121484802F0C4FC01281BD1D3
:100AB0000420E8E71021434802F0BCFC012813D1D0
:100AC0000821404802F0B6FC01280DD104213D4820
:100AD00002F0B0FC012807D101213B4802F0AAFC3A
:100AE00010B90120394908700020CCE71CB501215C
:100AF000612002F0DBFE4FF48070009001208DF841
:100B0000040003208DF8050000208DF80600012068
:100B10008DF8070069462E4802F02AFC102000904C
:100B200000208DF8040002208DF80700694629484E
:100B300002F01EFC4FF40070009001208DF80400BC
:100B400003208DF8050000208DF8060002208DF8A6
:100B5000070069461F4802F00BFC4FF480700090BC
:100B600001208DF8040003208DF8050000208DF889
:100B7000060002208DF807006946134802F0F8FBD2
:100B80004FF49C60009001208DF8040000208DF847
:100B9000060003208DF8050002208DF80700694645
:100BA0000C4802F0E5FB00200B4908600B49C1F836
:100BB0009802094908310860074914310860091F83
:100BC00008601CBD00100240000002401800002018
:100BD00000140240001802409402434200004342C5
:100BE00030B58BB005460C460121082002F05EFEB0
:100BF0000121480602F0A3FE0320099002208DF88F
:100C0000280000208DF82A0003208DF829000120FB
:100C10008DF82B0009A9594802F0AAFB09220021EE
:100C2000564802F030FC09220121544802F02BFC06
:100C300000208DF81E008DF81F008DF82000012087
:100C40008DF8210000208DF822008DF823008DF80A
:100C50001A008DF81B0005208DF81C0006208DF869
:100C60001D00A0B2ADF8180006A9454803F0B5F97B
:100C700000208DF812008DF8130001208DF814006B
:100C80000020ADF80800ADF80A00ADF80C00ADF892
:100C90000E00ADF8100001208DF8150002A803F039
:100CA00026FA01220221364803F020FD14208DF897
:100CB000040001208DF8050000208DF806000120B9
:100CC0008DF8070001A802F062FA00200BB030BDD9
:100CD000F0B585B007460C462088009000200190B2
:100CE000A0788DF8090000208DF80800E0788DF8D4
:100CF0000A00002506E0201D415D0DF10B00415565
:100D0000681CC5B2E078A842F5DC6946384603F0B5
:100D1000DDFA0646042E02D1012005B0F0BD002008
:100D2000FBE710B50024174A0021154803F0C3FB68
:100D300014480088144908801248407A8870114885
:100D4000807AC87000BF06E00E480B30015D0E4887
:100D5000001D0155641C0C48C078A042F4D80A4913
:100D60000A48006809F034FA10BD00B585B06A463B
:100D70000021074803F09FFB05B000BD000C0240B6
:100D800000640040F80900200C0A00201400002034
:100D90000068004010B504462146324803F0F4FED6
:100DA00010BD10B52F4803F0F1FE84B22E48006844
:100DB000844203D92C480068201A10BD2A480068D4
:100DC000001BFAE70EB55320ADF800000020ADF887
:100DD000020040F2E73001900020ADF808008DF8E5
:100DE0000A0069461F4803F084FE012202211D48C3
:100DF00004F020FB00211B4803F004FF0EBD08B5E2
:100E00001E208DF8000001208DF801008DF80200F1
:100E10008DF80300684602F0BAF908BD10B501214B
:100E2000042002F08CFD10BD10B5FFF7F7FFFFF7AF
:100E3000E6FFFFF7C7FF10BD10B5FFF7F5FF10BDC8
:100E400010B50221074804F00CFB50B1054803F02F
:100E50009DFE054908600221024804F013FB09F0D9
:100E6000BDFC10BD000800401C00002070B5FE490C
:100E7000FE48FFF72DFF022002F0A0F8FA490C31DE
:100E8000FA48FFF725FF022002F098F8F849F748E2
:100E9000FFF71EFF022002F091F8F5490C31F348EC
:100EA000FFF716FF022002F089F8F249EF48FFF73A
:100EB0000FFF022002F082F8EE490C31EB48FFF7F9
:100EC00007FF022002F07AF8EB49E848FFF700FF3D
:100ED000022002F073F8E8490C31E448FFF7F8FE0D
:100EE000022002F06BF8E4491831E048FFF7F0FE09
:100EF000022002F063F8E0492431DC48FFF7E8FE05
:100F0000022002F05BF8002421E0002504EB4400FD
:100F1000DA4A02EBC00005EB450200EB8201D34840
:100F2000FFF7D6FE022002F049F86D1C04EB4400E6
:100F3000D24A02EBC00005EB450200EB8201CB4830
:100F4000FFF7C6FE022002F039F8601CC4B2022C82
:100F5000DBDB002421E0002504EB4400C84A02EB5F
:100F6000C00005EB450200EB8201C048FFF7B0FE70
:100F7000052002F023F86D1C04EB4400C04A02EB8C
:100F8000C00005EB450200EB8201B848FFF7A0FE68
:100F9000052002F013F8601CC4B2022CDBDB002435
:100FA00041E0002504EB4400B64A02EB001005EBDB
:100FB000450200EB8201AD48FFF78AFE022001F0F6
:100FC000FDFF6D1C04EB4400AE4A02EB001005EB84
:100FD000450200EB8201A548FFF77AFE022001F0EE
:100FE000EDFF6D1C04EB4400A64A02EB001005EB7C
:100FF000450200EB82019D48FFF76AFE022001F0E6
:10100000DDFF6D1C04EB44009E4A02EB001005EB73
:10101000450200EB82019548FFF75AFE022001F0DD
:10102000CDFF601CC4B2022CBBDB002421E00025F4
:1010300004EB4400944A02EBC00005EB450200EBD0
:1010400082018A48FFF744FE022001F0B7FF6D1CC1
:1010500004EB44008C4A02EBC00005EB450200EBB8
:1010600082018248FFF734FE022001F0A7FF601CD6
:10107000C4B2022CDBDB002421E0002504EB440099
:10108000824A02EBC00005EB450200EB8201774883
:10109000FFF71EFE022001F091FF6D1C04EB4400DF
:1010A0007A4A02EBC00005EB450200EB82016F4873
:1010B000FFF70EFE022001F081FF601CC4B2022C7B
:1010C000DBDB73496948FFF703FE022001F076FF7E
:1010D00070496648FFF7FCFD022001F06FFF6D4983
:1010E0000C316248FFF7F4FD022001F067FF684908
:1010F0000C395E48FFF7ECFD022001F05FFF644908
:101100005A48FFF7E5FD022001F058FF61495748B2
:10111000FFF7DEFD022001F051FF5E490C3153481C
:10112000FFF7D6FD022001F049FF5B494F48FFF76A
:10113000CFFD022001F042FF57490C314B48FFF729
:10114000C7FD022001F03AFF54494848FFF7C0FDAF
:10115000022001F033FF51490C314448FFF7B8FD3C
:10116000022001F02BFF4E494048FFF7B1FD02205D
:1011700001F024FF4A490C313C48FFF7A9FD022049
:1011800001F01CFF47493948FFF7A2FD022001F09A
:1011900015FF44490C313548FFF79AFD022001F054
:1011A0000DFF41493148FFF793FD022001F006FF92
:1011B0003D490C312D48FFF78BFD022001F0FEFE6A
:1011C00070BD70B503460C46322B01DC322C00DDBD
:1011D00070BDC3EB03152901C4EB04152A01334E7E
:1011E00031710D0A75710D0CB5710D0EF57104207C
:1011F00006E02E4D2E5C2B4D2D1D2E54451CE8B2C5
:10120000284DED788542F4DC284E3271150A75714F
:10121000150CB571150EF571042006E0234D2E5CFA
:10122000204D10352E54451CE8B21E4DED7B8542F5
:10123000F4DC00BFCCE710B51A490C48FFF748FDB5
:10124000022001F0BBFE17490C310848FFF740FDB2
:10125000022001F0B3FE16480078012834D112496B
:101260000248FFF735FD25E0F00A00200064004049
:10127000180A0020300A0020080B0020500B002024
:10128000800B0020B00B0020100C0020400C002030
:10129000540A0020600A0020900A0020A80A0020BA
:1012A000380B0020780A0020C00A0020B40000207B
:1012B00022010020022001F081FEFE49FE48FFF7D6
:1012C00007FD0020FD49087010BD10B5FC49FA4823
:1012D000FFF7FEFC022001F071FEF9490C31F648DF
:1012E000FFF7F6FC022001F069FE0120F3490870C7
:1012F00010BD10B5F348407800F0040030B9F24951
:10130000ED48FFF7E5FC022001F058FEEF48407879
:1013100000F0040038B9EC490C31E748FFF7D8FC7D
:10132000022001F04BFEE748407800F0080008B1C9
:10133000FFF7CBFFE548407800F0080008B1FFF761
:10134000C4FF10BD10B5E24A32F8102000EB400394
:10135000E04C24F82320E04A127800EB400304EB31
:1013600083039A70DD4A127800EB400304EB830399
:10137000DA7000210AE0DA4A535C00EB4002D54CF7
:1013800004EB8202121D53544A1CD1B200EB4002FE
:10139000D04B03EB8202D2788A42ECDCCC4A32F8A2
:1013A000102000EB4003CF4C24F82320CA4A1278C7
:1013B00000EB400304EB83039A70C84A127800EBF9
:1013C000400304EB8303DA7000210AE0C64A535C51
:1013D00000EB4002C34C04EB8202121D53544A1C22
:1013E000D1B200EB4002BF4B03EB8202D2788A42BB
:1013F000ECDCB74A32F8102000EB4003BB4C24F879
:101400002320B54A127800EB400304EB83039A7063
:10141000B24A127800EB400304EB8303DA70002138
:101420000AE0B34A535C00EB4002B04C04EB82028A
:10143000121D53544A1CD1B200EB4002AB4B03EBDC
:101440008202D2788A42ECDCA14A32F8102000EB0A
:101450004003A84C24F823209F4A127800EB400355
:1014600004EB83039A709D4A127800EB400304EB6F
:101470008303DA7000210AE09F4A535C00EB4002CC
:101480009C4C04EB8202121D53544A1CD1B200EB57
:101490004002984B03EB8202D2788A42ECDC8C4A01
:1014A00032F8102000EB4003944C24F823208A4AA1
:1014B000127800EB400304EB83039A70874A12789A
:1014C00000EB400304EB8303DA7000210AE08C4A4E
:1014D000535C00EB4002894C04EB8202121D535412
:1014E0004A1CD1B200EB4002844B03EB8202D2785B
:1014F0008A42ECDC764A32F8102000EB4003814C43
:1015000024F82320744A127800EB400304EB830391
:101510009A70724A127800EB400304EB8303DA708E
:1015200000210AE0784A535C00EB4002754C04EB62
:101530008202121D53544A1CD1B200EB4002714B7F
:1015400003EB8202D2788A42ECDC614A32F8102046
:1015500000EB40036D4C24F823205F4A127800EB27
:10156000400304EB83039A705C4A127800EB40035B
:1015700004EB8303DA7000210AE0654A535C00EB58
:101580004002624C04EB8202121D53544A1CD1B239
:1015900000EB40025D4B03EB8202D2788A42ECDC26
:1015A0004B4A32F8102000EB4003424C0C3C24F82C
:1015B0002320494A127800EB400304EB83039A701E
:1015C000464A127800EB400304EB8303DA700021F3
:1015D0000BE0504A535C00EB4002364C0C3C04EBF1
:1015E0008202121D53544A1CD1B200EB4002314B0F
:1015F0000C3B03EB8202D2788A42EADC344A32F8AE
:10160000102000EB40032E4C24F82320324A12789D
:1016100000EB400304EB83039A70304A127800EB2E
:10162000400304EB8303DA7000210AE03A4A535C7A
:1016300000EB4002224C04EB8202121D53544A1C60
:10164000D1B200EB40021E4B03EB8202D2788A42F9
:10165000ECDC1F4A32F8102000EB40032F4C24F83A
:1016600023201D4A127800EB400304EB83039A7099
:101670001A4A127800EB400304EB8303DA7000216E
:101680000AE0274A535C00EB4002244C04EB820240
:10169000121D53544A1CD1B200EB40021F4B03EB06
:1016A0008202D2788A42ECDC094A32F8102000EB40
:1016B000400337E0CC0A00200064004022010020F3
:1016C000D80A00201E010020380B00202001002035
:1016D00004010020180A0020090100200801002050
:1016E00094000020300A00209C000020480A0020BE
:1016F000A4000020600A0020AC000020900A002016
:10170000BC000020A80A0020C4000020780A0020A5
:10171000B4000020CC000020D40000207C0C00206D
:10172000DC000020F94C24F82320F94A127800EB61
:10173000400304EB83039A70F64A127800EB4003EF
:1017400004EB8303DA7000210AE0F34A535C00EBF8
:101750004002EE4C04EB8202121D53544A1CD1B2DB
:1017600000EB4002E94B03EB8202D2788A42ECDCC8
:10177000EA4A32F8102000EB4003E94C24F8232019
:10178000E34A127800EB400304EB83039A70E14ACA
:10179000127800EB400304EB8303DA7000210AE0C7
:1017A000E04A535C00EB4002DD4C04EB8202121D68
:1017B00053544A1CD1B200EB4002D94B03EB8202D6
:1017C000D2788A42ECDCD54A32F8102000EB400394
:1017D000D54C24F82320CE4A127800EB400304EBCA
:1017E00083039A70CB4A127800EB400304EB830327
:1017F000DA7000210AE0CD4A535C00EB4002CA4C8B
:1018000004EB8202121D53544A1CD1B200EB400279
:10181000C54B03EB8202D2788A42ECDCBF4A32F835
:10182000102000EB4003C24C24F83320B84A127851
:1018300000EB400304EBC3039A70B64A127800EB46
:10184000400304EBC303DA7000210AE0B94A535C99
:1018500000EB4002B64C04EBC202121D53544A1C6A
:10186000D1B200EB4002B24B03EBC202D2788A4203
:10187000ECDCAA4A32F8102000EB4003AC4C04EB3D
:10188000C3039A81A24A137800EB400204EBC20220
:101890009373A04A137800EB400204EBC202D373A7
:1018A00000210BE0A34A0832535C00EB4002A04C3D
:1018B00004EBC202103253544A1CD1B200EB400276
:1018C0009B4B03EBC202D27B8A42EBDC002200EB93
:1018D0004003994C24F823208D4A127800EB4003F2
:1018E00004EB83039A70022200EB400304EB8303B2
:1018F000DA7000210CE0914A02EB4002535C00EBED
:1019000040028D4C04EB8202121D53544A1CD1B28A
:1019100000EB4002864B03EBC202D27B8A42EADC38
:101920007E4A32F8102000EB4003854C24F8332027
:10193000774A127800EB400304EBC3039A70754AB0
:10194000127800EB400304EBC303DA7000210AE0D5
:101950007C4A535C00EB4002794C04EBC202121D3E
:1019600053544A1CD1B200EB4002754B03EBC20248
:10197000D2788A42ECDC694A32F8102000EB40034E
:101980006F4C04EBC3039A81614A137800EB400269
:1019900004EBC20293735F4A137800EB400204EB3E
:1019A000C202D37300210BE0664A0832535C00EB9D
:1019B0004002634C04EBC202103253544A1CD1B2B1
:1019C00000EB40025E4B03EBC202D27B8A42EBDCAF
:1019D000524A32F8102000EB40035B4C24F83320CD
:1019E0004B4A127800EB400304EBC3039A70494A58
:1019F000127800EB400304EBC303DA7000210AE025
:101A0000524A535C00EB40024F4C04EBC202121DE1
:101A100053544A1CD1B200EB40024B4B03EBC202C1
:101A2000D2788A42ECDC3D4A32F8102000EB4003C9
:101A3000454C04EBC3039A81354A137800EB40020E
:101A400004EBC2029373334A137800EB400204EBB9
:101A5000C202D37300210BE03C4A0832535C00EB16
:101A60004002394C04EBC202103253544A1CD1B22A
:101A700000EB4002344B03EBC202D27B8A42EBDC28
:101A8000264A32F8102000EB4003314C04EB0313DC
:101A90001A801F4A127800EB400304EB03139A707C
:101AA0001C4A127800EB400304EB0313DA700021A8
:101AB0000AE0284A535C00EB4002254C04EB02127A
:101AC000121D53544A1CD1B200EB4002204B03EBD1
:101AD0000212D2788A42ECDC104A32F8102000EB75
:101AE00040031B4C04EB03139A81094A137800EB63
:101AF000400204EB02129373064A137800EB400293
:101B000004EB0212D373002131E00000940C00209A
:101B10000901002008010020E40000200401002049
:101B2000AC0C0020EC000020C40C0020F4000020CD
:101B3000080B002020000020380B0020300000207F
:101B4000500B002034000020800B002044000020B7
:101B5000B00B002054000020FE4A535C00EB400212
:101B6000FD4C04EB0212103253544A1CD1B200EB6C
:101B70004002F94B03EB0212D27B8A42ECDCF74ABB
:101B800032F8102000EB4003F34C04EB03131A83EC
:101B9000F34A137800EB400204EB02129376F14A09
:101BA000137800EB400204EB0212D37600210BE025
:101BB000E84A0832535C00EB4002E74C04EB0212A7
:101BC0001C3253544A1CD1B200EB4002E24B03EBEF
:101BD0000212D27E8A42EBDCE04A32F8102000EB9F
:101BE0004003DD4C04EB03139A84DD4A137800EBC9
:101BF000400204EB021282F82630DA4A137800EB36
:101C0000400204EB021282F8273000210BE0D14A97
:101C10001032535C00EB4002CF4C04EB021228322E
:101C200053544A1CD1B200EB4002CB4B03EB0212DF
:101C300092F827208A42EADCC84A32F8102000EBEA
:101C40004003C94C24F83320C54A127800EB400306
:101C500004EBC3039A70C34A127800EB400304EB11
:101C6000C303DA7000210AE0C04A535C00EB400273
:101C7000BD4C04EBC202121D53544A1CD1B200EBFE
:101C80004002B94B03EBC202D2788A42ECDCB34A81
:101C900032F8102000EB4003B34C04EBC3039A81ED
:101CA000AF4A137800EB400204EBC2029373AD4AD3
:101CB000137800EB400204EBC202D37300210BE067
:101CC000AA4A0832535C00EB4002A74C04EBC20264
:101CD000103253544A1CD1B200EB4002A24B03EB2A
:101CE000C202D27B8A42EBDC9C4A32F8102000EB25
:101CF00040039F4C24F83320994A127800EB4003AC
:101D000004EBC3039A70974A127800EB400304EB8C
:101D1000C303DA7000210AE0964A535C00EB4002EC
:101D2000934C04EBC202121D53544A1CD1B200EB77
:101D300040028F4B03EBC202D2788A42ECDC874A26
:101D400032F8102000EB4003894C04EBC3039A8166
:101D5000834A137800EB400204EBC2029373814A7A
:101D6000137800EB400204EBC202D37300210BE0B6
:101D7000804A0832535C00EB40027D4C04EBC20207
:101D8000103253544A1CD1B200EB4002784B03EBA3
:101D9000C202D27B8A42EBDC8022774B1A80704AE7
:101DA00012789A700022DA706C4A32F8102000EB38
:101DB0004003724C24F82320694A127800EB400358
:101DC00004EB83039A70674A127800EB400304EB3C
:101DD0008303DA7000210AE0694A535C00EB400299
:101DE000664C04EB8202121D53544A1CD1B200EB24
:101DF0004002624B03EB8202D2788A42ECDC10BDD7
:101E000070B50646012E02D1C41FC51F06E0022E82
:101E100003D16FF00B04254600E070BD2946204633
:101E2000FFF7CFF9FFF707FA00BFF6E770B50646F0
:101E3000012E02D10624062505E0022E02D10C2433
:101E40000C2500E070BD29462046FFF7BAF9FFF7E0
:101E5000F2F900BFF6E770B56FF0050406252946D4
:101E60002046FFF7AEF9FFF7E6F970BD70B506241E
:101E7000654229462046FFF7A4F9FFF7DCF970BD5B
:101E800070B500F04BFD002850D13E48006808B9FD
:101E9000012000E000203B490860322001F08EF86C
:101EA00000F0B3FD06460B2E01D00C2E40D10720CA
:101EB00000F0CEFDA0F18005082000F0C9FDC0F1C2
:101EC0007F04412D01DBFFF7D1FF15F1410F01DC4C
:101ED000FFF7C1FF14B90DB9FFF7F7F9412D27DA64
:101EE00015F1410F24DD002C0DDD0A2C04DD6E2CD4
:101EF00002DC0120FFF79AFF6E2C04DD802C02DC4F
:101F00000220FFF793FF002C12DA604204B20A2C81
:101F100004DD6E2C02DC0120FFF772FF6E2C07DD62
:101F2000802C05DC0220FFF76BFF01E0FFF7CDF905
:101F300070BD70B52DED048BB0EE408AF0EE608A76
:101F40000446002500269FED100AB0EE409A04BB1F
:101F500000201BE05C000020B00B002004010020EA
:101F60000901002008010020100C0020740000204E
:101F7000400C002084000020700C0020F00A00209B
:101F8000FC000020A482424217B7D138BDEC048B7C
:101F900070BD9FEDF80AB4EEC08AF1EE10FA06DBD0
:101FA0001FED070AB4EEC08AF1EE10FA0DD99FEDCD
:101FB000F10AF4EEC08AF1EE10FA09DB1FED0E0A09
:101FC000F4EEC08AF1EE10FA02D8FFF77EF925E0B0
:101FD0009FEDE90A28EE000ADFEDE80A80EE201AFC
:101FE000B6EE000A31EE000ABDEEC00A10EE105A3D
:101FF0009FEDE10A28EE800ADFEDE00A80EE201A6C
:10200000B6EE000A31EE000ABDEEC00A10EE106A0C
:1020100031462846FFF7D5F8FFF70DF90020BDEC53
:10202000048B70BD70B5054600245520D449087056
:10203000AA204870002088700846C570032D4AD138
:1020400011208870CF48C0780871CE4880784871D8
:10205000CC4840788871CB480078C871CA4800786D
:102060000872C94840784872C74880788872C64864
:10207000C078C872C548C0780873C448807848736F
:10208000C24840788873C1480078C873C048007857
:102090000874BF4840784874BD4880788874BC484C
:1020A000C078C8740A20087500BF0EE0B448807874
:1020B000C01CB349095CB248005D4140B04880781B
:1020C000C01CAF4A1154601CC4B2AD488078001DDA
:1020D000A042EBDC5BE0022D33D10920A8498870D7
:1020E000AC4800780871AB4840784871AA4800783D
:1020F0008871A9484078C871A84800780872A74834
:1021000040784872A64800788872A5484078C8721E
:102110000020087300240EE099488078C01C98497C
:10212000095C9748005D414095488078C01C944AFE
:102130001154601CC4B292488078001DA042EBDCB0
:1021400025E0FF2D23D104208D4988709548007823
:10215000487194484078887192488078C87100200E
:10216000087200240EE086488078C01C8449095C0F
:102170008348005D414082488078C01C804A1154E9
:10218000601CC4B27E488078001DA042EBDC7C4815
:102190008078A0B100240DE000BF4021824801F00A
:1021A000A3FE0028F9D07648015D7F4801F0ECFDE0
:1021B000601CC4B272488078001DA042ECDC7048FC
:1021C0008078011D6E4809F00BFC70BD10B500242D
:1021D000022000F0F3FE75497548FEF779FD00E036
:1021E000641C7448008840F28151884203D06FF02B
:1021F0007F408442F4D36F48008840F28151884286
:1022000024D16C4800796C49097888421ED169480C
:10221000407969494978884218D166488079664989
:102220008978884212D16348C0796349C978884265
:102230000CD16048007A534908705E48407A487073
:102240005C48807A88705B48C07AC870022000F0D1
:10225000B5FE002455490C315548FEF739FD00E024
:10226000641C5448008840F28251884203D06FF0C9
:102270007F408442F4D34F48008840F28251884224
:1022800024D14C4800794C49097888421ED14948EC
:10229000407949494978884218D146488079464969
:1022A0008978884212D14348C0794349C978884225
:1022B0000CD14048007A354908703E48407A487051
:1022C0003C48807A88703B48C07AC8700120FFF78C
:1022D000A9FE10BD7CB5002638493548FEF7F8FC4C
:1022E00001E0701C86B23348008840F28151884278
:1022F00003D04FF6FF708642F3DB2E480079304959
:102300000978884235D12B4840792D49497888424F
:102310007CD1284880792A498978884276D1254815
:10232000C0792749C978884270D12248407A001282
:10233000F0B12048017A407AC0EB002008444FF603
:10234000FF71081A85B200EE105AB8EE400ADFEDB0
:102350000B0A20EE200ADFED1B0A80EE201A8DED1D
:10236000001A9DED000AB1EE400A8DED000A40E032
:102370002AE04BE017B7D1B800C0DA460040444429
:10238000E80C00200A010020120100200E010020AC
:10239000160100201E0100201A010020200100204B
:1023A0001C01002023010020004800407C0C00207C
:1023B000006400400C0A0020DC000020940C002087
:1023C000E40000200014CD4AF848017A407AC0EBBE
:1023D0000020084485B200EE105AB8EE400A5FEDC6
:1023E000190A20EE200A5FED090A80EE201A8DED11
:1023F000001A9DF80000EE4908709DF80100487031
:102400009DF8020088709DF80300C870022000F05B
:10241000D5FD0026E749E848FEF75AFC01E0701CAC
:1024200086B2E248008840F28251884203D04FF6DB
:10243000FF708642F3DBDD480079E0490978884285
:1024400056D1DA484079DD494978884250D1D74899
:102450008079DA49897888424AD1D448C079D74905
:10246000C978884244D1D148407A0012F0B1CF48AF
:10247000017A407AC0EB002008444FF6FF71081A39
:1024800084B200EE104AB8EE400A5FED440A20EE36
:10249000200A5FED340A80EE201A8DED011A9DEDC1
:1024A000010AB1EE400A8DED010A14E0BF48017A3D
:1024B000407AC0EB0020084484B200EE104AB8EE27
:1024C000400A5FED520A20EE200A5FED420A80EEDC
:1024D000201A8DED011A9DF80400B94908709DF885
:1024E000050048709DF8060088709DF80700C870C8
:1024F0007CBD10B50024B349AF48FEF7E9FB01E00D
:10250000601CC4B2A948008840F28151884203D0BF
:102510004FF6FF708442F3DBA4480079AA4909789A
:10252000884228D1A1484079A7494978884222D1D8
:102530009E488079A449897888421CD19B48C079FB
:10254000A149C978884216D19848407A001258B1FA
:102550009648407AC0F1FF009C4908709348007A81
:10256000C0F1FF00487006E09048407A9749087033
:102570008E48007A4870022000F020FD0024914926
:102580000C318D48FEF7A4FB01E0601CC4B2874803
:10259000008840F28251884203D04FF6FF70844297
:1025A000F3DB8248007988490978884218D17F484E
:1025B000407985494978884212D17C48807982499E
:1025C000897888420CD17948C0797F49C978884296
:1025D00006D17648407A7E4908707448007A48707F
:1025E00010BD70B5002400257A497348FEF770FBD2
:1025F00001E0601C84B26D48008840F2815188423D
:1026000003D04FF6FF708442F3DB684800797249CB
:102610000978884221D1654840796F4949788842D4
:102620001BD1624880796C498978884215D15F480E
:10263000C0796949C97888420FD15C48407A00F076
:10264000080050B1FEF741FE0120644908700020E7
:10265000487001208870681CC5B20024022000F078
:10266000ADFC5C490C315448FEF732FB01E0601CC4
:1026700084B24E48008840F28251884203D04FF61F
:10268000FF708442F3DB4948007953490978884256
:1026900021D1464840795049497888421BD1434866
:1026A00080794D498978884215D14048C0794A4996
:1026B000C97888420FD13D48407A00F0080050B1F7
:1026C000FEF703FE01204549087008468078801C0B
:1026D0008870681CC5B21DB1FF20FFF7A3FC002560
:1026E0003E4800210160818070BD012803D1012195
:1026F0003B4A116002E00021394A1160704700280E
:102700000FD001280ED10121354A0C3A1160002169
:10271000344AC2F89C12324A121D1160314AC2F882
:1027200094127DE002280ED101212D4A083A116051
:1027300000212C4AC2F89412294A0C3A1160294A05
:10274000C2F894126CE004280ED10121244A121D13
:1027500011600021234AC2F89412214A0C3A1160F8
:10276000204AC2F89C125BE008280ED101211C4AC5
:10277000103A116000211B4AC2F89812184A083A10
:102780001160184AC2F8A8124AE009282CD1012188
:10279000134A103A1160134AC2F898120021104AE5
:1027A000083A11600F4AC2F8A81239E00C0A00205A
:1027B00012010020A00C002000640040E400002072
:1027C00016010020AC0C0020EC0000201A010020B3
:1027D0001C010020C40C0020F40000202301002074
:1027E000A4024342000043420A280CD10121134AAB
:1027F0001160134AC2F89C120021104A1160104A5D
:10280000C2F898120CE000210C4A11600C4AC2F880
:1028100098120A4A083211600121094AC2F8A81226
:102820007047014619B90020064A106004E00129EA
:1028300002D10120034A10600020704794024342F5
:1028400000004342A00240421CB50121022001F0D9
:102850002DF84FF46040009001208DF80400002016
:102860008DF8060002208DF805008DF807006946F6
:10287000F54800F07DFD4FF48050009000208DF869
:10288000040002208DF805008DF807006946EE4827
:1028900000F06EFD4FF47041EB4800F0E7FD1CBD09
:1028A00038B50446012000900020E8494870012016
:1028B00000902EE0BDF80000204018B10120E4494E
:1028C000086002E00020E24908600120E049083188
:1028D0000860322000F02AFB0020DE49C1F8BC026B
:1028E000322000F023FB0120DA49C1F8BC0208467F
:1028F000D0F8300230B1D5484078BDF80010084318
:10290000D2494870BDF800004FF6FF7101EA40005F
:102910000090BDF80000FF28CCDD38BD10B50020C8
:10292000CB49091D0860CC490878FFF7B9FFCA49AF
:102930004878FFF7B5FF0120C649C1F8B802C3487F
:102940004078732801D1002010BD0120FCE71CB5A0
:1029500000200190012000900020BD49091D086061
:10296000BD490878FFF79CFFBB494878FFF798FFFF
:102970000220019036E00120009027E00120B449B8
:1029800008310860322000F0D1FA0020B149C1F8C6
:10299000BC02322000F0CAFA0120AE49C1F8BC02E4
:1029A0000846D0F8300250B1A8489DF80410405CA9
:1029B000BDF800100843A5499DF804208854BDF8CF
:1029C00000004FF6FF7101EA40000090BDF80000E2
:1029D000FF28D3DD322000F0A9FA9DF80400401C46
:1029E000C0B201909DF804000928C4DB0120984979
:1029F000091D08601CBD002004E00021934A115409
:102A0000411CC8B20928F8DB704710B5FFF7F3FF87
:102A1000FFF79DFF8D48C0788C49097940EA012075
:102A20008E49088000240FE08D4810F81400401EE5
:102A3000012101FA00F089490988084010B9601C99
:102A4000C0B210BD601CC4B2102CEDDB0020F8E752
:102A500001467E48405C704770B505460C46002034
:102A60007B49091D0860102000F060FA0120FFF783
:102A700017FF4220FFF714FF0020FFF711FF284641
:102A8000FFF70EFF2046FFF70BFF0020FFF708FFC0
:102A90000020FFF705FF0020FFF702FF0020FFF7EF
:102AA000FFFE01206B49C1F8B802102000F03EFA89
:102AB00070BD10B500206649091D0860102000F0A7
:102AC00035FA0120FFF7ECFE4220FFF7E9FE002077
:102AD000FFF7E6FE0020FFF7E3FE0020FFF7E0FE31
:102AE00001205C49C1F8B802102000F01FFA10BDA7
:102AF00010B500205649091D0860102000F016FA94
:102B00000120FFF7CDFE4320FFF7CAFE0020FFF7AC
:102B1000C7FE0120FFF7C4FE0020FFF7C1FE002022
:102B2000FFF7BEFE0020FFF7BBFE0020FFF7B8FE58
:102B30000020FFF7B5FE01204649C1F8B802102079
:102B400000F0F4F910BD10B500204149091D0860DE
:102B50000120FFF7A5FE4420FFF7A2FE0020FFF7AB
:102B60009FFE0020FFF79CFEEE20FFF799FE00205D
:102B7000FFF796FE0020FFF793FE0020FFF790FE80
:102B80000020FFF78DFE01203249C1F8B802102065
:102B900000F0CCF910BD10B500202D49091D0860CA
:102BA000102000F0C3F90120FFF77AFE4D20FFF757
:102BB00077FE0020FFF774FE0020FFF771FE012072
:102BC000FFF76EFE01202349C1F8B802102000F083
:102BD000ADF910BD10B500201D49091D0860102079
:102BE00000F0A4F90120FFF75BFE4320FFF758FE39
:102BF0000020FFF755FE0020FFF752FE5A20FFF796
:102C00004FFE5A20FFF74CFE5A20FFF749FE5A208C
:102C1000FFF746FE5A20FFF743FE01200D49C1F899
:102C2000B802102000F082F910BD10B5FFF741FF87
:102C3000FFF73FFFFFF73DFFFFF75AFFFFF783FF67
:102C4000FFF7C8FF10BD000000040240DC0C0020AC
:102C5000B4824042008040422E0100202C0100201E
:102C60003001002010B52021584801F03DF928B36B
:102C7000564801F08DF8C4B25548008800F4004071
:102C8000E0B953480088C82812DA0021514801F001
:102C900079FF4F48008818B901214E4801F0B2FF72
:102CA0004B490888411C4A4A11804B490C5405E0A5
:102CB0004748008840F400404549088010BD10B5E1
:102CC00088B00446414800F045FF0121022000F091
:102CD000EDFD0121880400F032FE4FF440600590C4
:102CE00002208DF818008DF8190000208DF81A00C8
:102CF00001208DF81B0005A9384800F039FB072298
:102D00000B21364800F0BFFB07220A21334800F0B0
:102D1000BAFB01940020ADF80800ADF80A00ADF848
:102D20000C00ADF810000C20ADF80E0001A92748EA
:102D300000F077FF012240F22551244801F0AFF85E
:102D40000121224800F0F5FF27208DF81C00022009
:102D50008DF81D0003208DF81E0001208DF81F0046
:102D600007A800F014FA42F2CF01312000F050F829
:102D70000021184801F046FF00201549088008B0DE
:102D800010BD0FB438B505A800901548009A0499F5
:102D900008F076FC00200090114808F0BDFD85B2D7
:102DA00000240DE000BF4021084801F09DF80028F4
:102DB000F9D00B48015D054800F0E6FF601C84B2C5
:102DC000AC42EFDB38BC5DF814FB0000004800406B
:102DD0005001002000140040780E00200004024042
:102DE000E80C002010B501213F4802F03AFB012811
:102DF0000DD13E48008840F400403C490880012144
:102E0000394802F03FFB0021374801F0FBFE10BDBE
:102E10007FB505460C460121202000F090FD02956B
:102E2000ADF804400020ADF80600ADF80C0001A993
:102E30002D4801F05EFE012211462B4802F0FAFAFD
:102E40000121294801F0DEFE37208DF80000002026
:102E50008DF8010001208DF802008DF8030068460E
:102E600000F095F97FBD10B50121214802F0F9FA73
:102E700001280DD11F48008840F400401D490880FA
:102E800001211B4802F0FEFA0021194801F0BAFEA8
:102E900010BD7FB505460C460121082000F04FFD0E
:102EA0000295ADF804400020ADF80600ADF80C0026
:102EB00001A90F4801F01DFE012211460C4802F045
:102EC000B9FA01210A4801F09DFE32208DF8000078
:102ED00000208DF8010001208DF802008DF803001C
:102EE000684600F054F97FBD0014004050010020F6
:102EF000000C00405C01002010B504466FF0040097
:102F000000F092F9E11704EB5171C1F3C701394A9E
:102F100011701046007800EB4001C1EBC0104FF675
:102F2000FF7101EAC0003449088010BD0146314AF2
:102F300012784A434FF0E0235A6100229A611A4600
:102F4000126942F001021A6100BF4FF0E0221069DD
:102F500000F001021AB100F48032002AF5D04FF0DF
:102F6000E022126922F001024FF0E0231A610022F0
:102F70009A6170470146204A12884A434FF0E02385
:102F80005A6100229A611A46126942F001021A61DE
:102F900000BF4FF0E022106900F001021AB100F406
:102FA0008032002AF5D04FF0E022126922F00102AF
:102FB0004FF0E0231A6100229A61704770B5044611
:102FC0004FF4077094FBF0F0C6B24FF4077094FB17
:102FD000F0F100FB114085B205E04FF40770FFF7F8
:102FE000C9FF701EC6B2002EF7D115B12846FFF7F3
:102FF000C1FF70BD520100205401002000BF704786
:1030000000BF4C4A128802F04002002AF9D0C2B236
:10301000484B9A80704710B588B004460121084695
:1030200000F044FC0121102000F09AFC0722092145
:10303000414800F028FA07220A213F4800F023FA0D
:103040004FF4C060069002208DF81C008DF81D0022
:1030500000208DF81E0001208DF81F0006A93648BB
:1030600000F086F902940020ADF80C00ADF80E00D7
:10307000ADF81000ADF814000C20ADF8120002A954
:103080002C4800F0CEFD01212A4800F052FE01221A
:1030900040F22551274800F002FF25208DF804005A
:1030A00003208DF805008DF8060001208DF807003B
:1030B00001A800F06CF808B010BD10B540F2255121
:1030C0001C4800F027FF10B31A4800F061FEC4B29C
:1030D0001A48008800F40040C8B91848008800F475
:1030E000804060B10A2C03D000201449088020E001
:1030F0001248008840F400401049088019E00D2C67
:1031000006D10E48008840F480400C49088010E049
:103110000A480088C0F30D0009490C54074800888C
:10312000401C0649088008460088C72801DD0020A9
:10313000088010BD00100140000002405C0100202A
:10314000400F00200948804709480047FEE7FEE796
:10315000FEE7FEE7FEE7FEE7FEE7FEE7FEE7FEE747
:1031600004480549054A064B7047000081080108DC
:1031700089010108A8150020A81B0020A81700201D
:10318000A817002032490143324A1160704770B5D8
:10319000002100230F22C4781CB32E4C246804F4B1
:1031A000E064C4F5E064C4F30721C1F10404E3B2B0
:1031B0000A4144789C40E1B28478144021430C07D2
:1031C000210E254C05786155047804F01F05012473
:1031D000AC4005786D11AD0005F1E025C5F8004162
:1031E00009E0047804F01F050124AC401B4D06786B
:1031F000761145F8264070BD194A0A400243154B26
:103200001B1F1A60704739B1124A121D126802431F
:10321000104B1B1D1A6006E00E4A121D12688243F5
:103220000C4B1B1D1A607047042808D14FF0E02199
:10323000096941F004014FF0E022116107E04FF00D
:10324000E021096921F004014FF0E022116170478B
:103250000000FA050CED00E000E400E080E100E091
:1032600080FFFF1F10B504469848844208D1012111
:10327000084600F086FB0021012000F082FB76E08A
:103280009348844208D10121022000F07AFB0021FA
:10329000022000F076FB6AE08E48844208D10121CA
:1032A000042000F06EFB0021042000F06AFB5EE0C9
:1032B0008948844208D10121082000F062FB0021E6
:1032C000082000F05EFB52E08448844208D10121CE
:1032D000102000F056FB0021102000F052FB46E0C9
:1032E0007F48844208D10121202000F04AFB0021C0
:1032F000202000F046FB3AE07A48844208D10121C0
:10330000402000F03EFB0021402000F03AFB2EE080
:103310007548844208D10121802000F032FB002151
:10332000802000F02EFB22E07048844208D1012169
:10333000801500F026FB0021A01500F022FB16E00E
:103340006B48844208D10121401500F01AFB00218E
:10335000601500F016FB0AE06648844207D101219F
:10336000001500F00EFB0021201500F00AFB10BD37
:10337000F0B50A4600210023002400BF3DE00125EE
:1033800005FA01F3156805EA03049C4234D1056887
:103390004F000326BE40B543056015794E00B54089
:1033A0000668354305601579012D02D01579022D87
:1033B00016D185684F000326BE40B5438560557918
:1033C0004E00B540866835438560456801268E40CD
:1033D000B5434560456896798E40B6B23543456041
:1033E000C5684F000326BE40B543C560D5794E0081
:1033F000B540C6683543C560491C1029BFD3F0BD30
:103400004FF6FF7101600021017141718171C1713D
:10341000704708B54FF480320092009A0A43009238
:10342000009AC261C161009AC261C2690092C26918
:10343000009208BD0246002013690B400BB1012029
:1034400000E0002070470146086980B270470246DC
:10345000002053690B400BB1012000E000207047B1
:103460000146486980B270470183704741837047C5
:103470000AB1018300E041837047416170474269AE
:103480004A4042617047F0B5002300244D07ED0E1D
:1034900002FA05F3CE1000F1200555F826504E072C
:1034A000F70E0F26BE40B543CF1000F1200646F8B8
:1034B0002750CE1000F1200555F8265045EA0304A8
:1034C000CE1000F1200545F82640F0BD0000024076
:1034D0000004024000080240000C024000100240BC
:1034E0000014024000180240001C0240002002406C
:1034F0000024024000280240F948006840F0010022
:10350000F74908600020F64908310860F44800686F
:10351000F4490840F2490860F348091D0860F3487F
:10352000EF4984310860F0481038091D0860EC4804
:10353000006820F48020EA4908600020E8490C3146
:103540000860E7498C31086070470021E44A921C0A
:10355000117011460870704710B501460022002313
:1035600000204A11012A02D1DD4C236808E0022A1A
:1035700003D1DB4C7034236802E0D94C74342368E7
:1035800001F01F02012494401C400CB1012000E016
:10359000002010BD38B5002000900024002500BF99
:1035A0003120FFF7D9FF05460098401C0090009895
:1035B000B0F5A04F01D0002DF2D03120FFF7CCFFA5
:1035C00008B1012400E00024204638BD0146002057
:1035D000C34A106820F0F80040EAC100106070474C
:1035E000C349086070470021BD4A703211701170E4
:1035F000012802D004280AD104E00121B84A70321F
:10360000117005E00521B64A7032117000E000BF6C
:1036100000BF7047B7490860704770B5049C41EA25
:1036200082150126C6EB530645EA0645054345EAE1
:103630000465AB4E361D356070BDAD4908667047F8
:10364000820142EA0172A64B84331A607047A8498E
:103650008866704710B5830143EA016343EA027349
:103660009F4C8834236010BDA14908677047A0496A
:10367000C864704702460020994B0833186820F050
:10368000EC6042EA01031843954B08331860704719
:1036900002460020924B0833186820F0784042EA36
:1036A000010318438E4B0833186070470146002011
:1036B0008B4A0832106820F00300084310607047FE
:1036C00087480830006800F00C0070470146002071
:1036D000834A0832106820F0F000084310607047F9
:1036E000014600207E4A0832106820F4E05008436A
:1036F0001060704701460020794A0832106820F4B3
:10370000604040EAC10010607047F0B5002100221F
:103710000024022500260223714F08373F6807F076
:103720000C0121B1042905D0082937D105E0724FD9
:10373000076036E0714F076033E0694F3F1D3F6817
:10374000C7F38056664F3F1D3F6807F03F036EB1D9
:103750006A4FB7FBF3F7DFF888C10CF1040CDCF813
:1037600000C0CCF3881C07FB0CF40CE0624FB7FBE5
:10377000F3F7DFF86CC10CF1040CDCF800C0CCF3FB
:10378000881C07FB0CF4564F3F1D3F68C7F30147E9
:103790007F1C7D00B4FBF5F7076002E0564F076021
:1037A00000BF00BF4E4F08373F6807F0F00109091E
:1037B000534F7A5C0768D7404760494F08373F68E6
:1037C00007F4E051890A4E4F7A5C4768D74087601A
:1037D000434F08373F6807F46041490B484F7A5C14
:1037E0004768D740C760F0BD002100F44072B2F5D1
:1037F000407F0AD13A4A0832116821F4F811414A4F
:1038000002401143364A08321160354A703212685C
:10381000C0F30B031A43324B70331A6070473549BB
:103820004439086070473349403908607047364969
:103830000860704701460020294A8C32106820F049
:103840001F004A1E1043264A8C3210607047014602
:103850000020234A8C32106820F4F8504A1E40EAB7
:1038600002201F4A8C3210607047014600201C4A1B
:103870008C32106820F440100843106070470146F5
:103880000020174A8C32106820F440000843106072
:10389000704701460020124A8C32106820F44030F4
:1038A00008431060704719490860704739B10C4AE5
:1038B0003032126802430A4B30331A6006E0084A7D
:1038C000303212688243064B30331A607047F9B1C8
:1038D000034A343212680243014B34331A601CE04D
:1038E00000380240FFFFF6EA1030002400300020CC
:1038F00000004742800E47420024F40000127A0084
:103900005E010020FFFCFF0F5C014742E0114742CF
:103910008F4A126882438E4B1A60704739B18C4AC5
:10392000121D126802438A4B1B1D1A6006E0884A6A
:10393000121D12688243864B1B1D1A60704739B1F5
:10394000834A0C3212680243814B0C331A6006E042
:103950007F4A0C32126882437D4B0C331A607047E9
:1039600039B17B4A103212680243794B10331A6026
:1039700006E0774A103212688243754B10331A60A2
:10398000704739B1724A243A12680243704B243BA3
:103990001A6006E06E4A243A126882436C4B243B5C
:1039A0001A60704739B16A4A203A12680243684B7C
:1039B000203B1A6006E0664A203A12688243644B54
:1039C000203B1A60704739B1614A1C3A12680243C1
:1039D0005F4B1C3B1A6006E05D4A1C3A126882434A
:1039E0005B4B1C3B1A60704739B1594A143A126854
:1039F0000243574B143B1A6006E0554A143A1268CA
:103A00008243534B143B1A60704739B1504A103A05
:103A1000126802434E4B103B1A6006E04C4A103AC3
:103A2000126882434A4B103B1A60704739B1484ACA
:103A30001C3212680243464B1C331A6006E0444AAB
:103A40001C3212688243424B1C331A60704739B1F2
:103A50003F4A2032126802433D4B20331A6006E091
:103A60003B4A203212688243394B20331A60704738
:103A700039B1374A243212680243354B24331A6075
:103A800006E0334A243212688243314B24331A60F1
:103A9000704739B12E4A2C32126802432C4B2C331A
:103AA0001A6006E02A4A2C3212688243284B2C33D3
:103AB0001A60704739B1264A303212680243244BEB
:103AC00030331A6006E0224A303212688243204BBB
:103AD00030331A607047012808D11D493C3109680C
:103AE00041F008011A4A3C32116007E018493C31A4
:103AF000096821F00801164A3C321160704739B15B
:103B0000134A273A12780243114B273B1A7006E0FA
:103B10000F4A273A127882430D4B273B1A707047A1
:103B20000B484030006840F080700949403108601F
:103B3000704701460020064A283A12680A400AB136
:103B4000012000E0002070470149263908707047C5
:103B50003438024010B50446FA48844208D10121A5
:103B60001020FFF752FF00211020FFF74EFF57E013
:103B7000F548844209D101214804FFF735FF0021AF
:103B80004FF40030FFF730FF4AE0F048844209D19B
:103B900001218804FFF728FF00214FF48020FFF760
:103BA00023FF3DE0EA48844209D10121C804FFF720
:103BB0001BFF00214FF40020FFF716FF30E0E5481F
:103BC000844209D101210805FFF70EFF00214FF4BF
:103BD0008010FFF709FF23E0DF48844208D101216C
:103BE0002020FFF712FF00212020FFF70EFF17E033
:103BF000DA48844209D101218807FFF7F5FE002148
:103C00004FF08040FFF7F0FE0AE0D548844207D12C
:103C100001214005FFF7E8FE00216005FFF7E4FE03
:103C200010BD2DE9FF4705460E460024A14600BF02
:103C3000A046B08900B100BF2C8A24F44054F0881B
:103C400004432C82AC8941F20C608443B0883189F2
:103C50000843718908430443AC81AC8A24F440745E
:103C6000B0890443AC826846FFF74FFDB5488542F2
:103C700002D0B948854202D1DDF80C9001E0DDF8B0
:103C80000890A88900F4004040B109EBC90000EB9E
:103C9000091031684900B0FBF1F707E009EBC900F2
:103CA00000EB091031688900B0FBF1F76420B7FB25
:103CB000F0F004012009642101FB1078A88900F4C8
:103CC000004040B1322000EBC800B0FBF1F000F042
:103CD0000700044308E0322000EB08106421B0FB29
:103CE000F1F000F00F0004432C81BDE8FF874FF492
:103CF0001651016000218180C18001810C21418128
:103D000000218181704710B502460020108A20F4FE
:103D100070600B884C8823438C882343CC882343D2
:103D20001843108210BD0021018041808180C18034
:103D3000704721B1828942F40052828104E0828975
:103D40004DF6FF731A4082817047028B02F47F4266
:103D50000283028B0A430283704721B1828942F4B5
:103D60000042828103E08289C2F30E0282817047A1
:103D700021B1828A42F40062828204E0828A4FF298
:103D8000FF731A4082827047C1F308028280704735
:103D900001468888C0F308007047028A4FF6F07326
:103DA0001A400282028A0A430282704721B1828944
:103DB00042F00202828104E082894FF6FD731A40CC
:103DC0008281704782894FF2FF731A408281828913
:103DD0000A4382817047028A4FF6DF731A400282DB
:103DE000028A0A430282704721B1028A42F4804269
:103DF000028204E0028A4BF6FF731A400282704787
:103E0000818941F001018181704721B1828A42F0AC
:103E10000802828204E0828A4FF6F7731A40828297
:103E20007047028BD2B20283028B42EA01220283E4
:103E3000704721B1828A42F02002828204E0828AA5
:103E40004FF6DF731A408282704721B1828A42F0B6
:103E50001002828204E0828A4FF6EF731A40828257
:103E60007047828A4FF6FB731A408282828A0A4325
:103E70008282704721B1828A42F00202828204E08B
:103E8000828A4FF6FD731A40828270471AB1838A84
:103E90000B43838202E0838A8B4383827047F0B5B1
:103EA0000346002400260025002040F66A17B94288
:103EB00000D100BF1846C1F3421401F01F060127CC
:103EC00007FA06F5012C01D10C3004E0022C01D1D7
:103ED000103000E014301AB107682F43076002E089
:103EE0000768AF430760F0BD02460020B1F5007FD0
:103EF00000D100BF13880B400BB1012000E000206F
:103F0000704701F40072B2F5007F00D100BFCA43D0
:103F10000280704770B5024600240023002500206F
:103F200040F66A16B14200D100BFC1F3421501F05C
:103F30001F03012606FA03F3012D13D1968933409E
:103F400017E000000010014000440040004800401D
:103F5000004C004000500040001401400078004038
:103F6000007C0040022D02D1168A334001E0968A7F
:103F700033400C12012606FA04F41688344013B1BB
:103F80000CB1012000E0002070BD10B5002200231C
:103F900040F66A14A14200D100BF0A1201249440E5
:103FA000A3B2DC43048010BD10B50446FE48844231
:103FB00009D101214806FFF717FD00214FF00070DD
:103FC000FFF712FD08E001218806FFF70DFD002133
:103FD0004FF08060FFF708FD10BD30B502460020AD
:103FE0000023146824F002041460146844F00104EF
:103FF000146000E05B1C546804F001041CB94FF627
:10400000FF74A342F6D1546804F001040CB90020F7
:104010006CE08C79012C04D1146844F080041460A5
:1040200003E0146824F080041460CC79012C04D1DE
:10403000146844F04004146003E0146824F0400461
:1040400014600C7A012C04D1146844F0200414602C
:1040500003E0146824F0200414604C7A012C04D18D
:10406000146844F01004146003E0146824F0100491
:1040700014608C7A012C04D1146844F00804146094
:1040800003E0146824F008041460CC7A012C04D1F5
:10409000146844F00404146003E0146824F0040479
:1040A00014608C78A407CD7844EA05640D7944EA5D
:1040B00005444D7944EA05540D886D1E2C43D461A6
:1040C000146824F001041460002300E05B1C5468B1
:1040D00004F001041CB14FF6FF74A342F6D15468FA
:1040E00004F001040CB1002000E0012030BD10B547
:1040F0000021837A012202FA03F1AC4A126842F0ED
:104100000102AA4B1A60A94A1C3212688A43A74BC3
:104110001C331A60027BCAB9A44A0C3212688A4363
:10412000A24B0C331A604288C38842EA03439F4A79
:104130004032847A42F834300288838842EA03436A
:104140009A4A4032847A02EBC4025360027B012A0D
:1041500019D1964A0C3212680A43944B0C331A60F8
:104160004288038842EA0343904A4032847A42F804
:104170003430C288838842EA03438C4A4032847ACE
:1041800002EBC4025360C27A3AB9884A121D12681F
:104190008A43864B1B1D1A6006E0844A121D126872
:1041A0000A43824B1B1D1A60028932B97F4A1432BE
:1041B00012688A437D4B14331A600289012A06D1A2
:1041C0007A4A143212680A43784B14331A60427BDD
:1041D000012A06D1754A1C3212680A43734B1C33FC
:1041E0001A60724A126822F00102704B1A6010BD08
:1041F00000218171C171017241728172C17281703D
:10420000C1700321017102214171012101807047B8
:104210006649096841F00101644A11601146096864
:1042200043F60E729143614A11601146096841EAF2
:10423000002111601146096821F0010111607047E9
:1042400021B1026842F48032026003E0026822F485
:10425000803202607047E1B1026842F08002026081
:104260004FF4C272125842F480734FF4C27213506A
:104270004FF4CA72125842F480734FF4CA7213504A
:104280004FF4D272125842F480734FF4D27213502A
:104290001BE0026822F0800202604FF4C2721258E2
:1042A00022F480734FF4C27213504FF4CA72125842
:1042B00022F480734FF4CA7213504FF4D272125822
:1042C00022F480734FF4D2721350704710B5024637
:1042D0000020936803F08063B3F1806F00D110E099
:1042E000936803F00063B3F1006F01D1012008E08F
:1042F000936803F08053B3F1805F01D1022000E0A6
:104300000420042879D002F5C07303EB00131B6866
:1043100003F0010402F5C07303EB00131C600B7A79
:104320007BB94B7A0C8843EA445302F5C07404EB22
:1043300000142468234302F5C07404EB00142360C6
:1043400010E00B7A4C6843EAC4034C7A234302F52D
:10435000C07404EB00142468234302F5C07404EB1A
:10436000001423608B7A03F00F038B7202F5C07385
:1043700003EB00135B6823F00F0402F5C07303EB3B
:1043800000135C6002F5C07303EB00135B688C7A6A
:10439000234302F5C07404EB001463608B7B1C069E
:1043A0004B7B44EA034403E00064004000660040A5
:1043B0000B7B44EA0323CC7A234302F5C07404EB5D
:1043C0000014A3608B7C1C064B7C44EA03440B7CEA
:1043D00044EA0323CC7B234302F5C07404EB0014AE
:1043E000E36002F5C07303EB00131B6843F00104A4
:1043F00002F5C07303EB00131C6010BD10B502463C
:10440000002321B1012907D002290FD109E09068CA
:10441000F94C00EA04030BE09068F84C00EA04034E
:1044200006E09068F64C00EA040301E0002300BFB8
:1044300000BFF44C181BA34216D007DC83B16FF009
:104440008060184470B1022818D111E0B0F5007FE7
:1044500010D0ED4C204448B1B0F5003F0ED10BE038
:1044600002230DE000230BE0002309E0002307E016
:10447000012305E0012303E0012301E0002300BF45
:1044800000BFD8B210BD21B1012907D002290FD138
:1044900009E0826842F0800282600AE0826842F4A9
:1044A0000042826005E0826842F40002826000E01F
:1044B00000BF00BF704710B500F5D87303EB0113C0
:1044C0001B6803F004031372137A53B900F5D87311
:1044D00003EB01131B6840F2FF7404EA53531360AB
:1044E00009E000F5D87303EB01131B686FF060441B
:1044F00004EAD303536000F5D87303EB01131B6880
:1045000003F00203537200F5D87303EB01135B68E9
:1045100003F00F03937200F5D87303EB01135B688C
:104520001B0AD37400F5D87303EB01139B68D37295
:1045300000F5D87303EB01139B681C0A147300F594
:10454000D87303EB01139B681C0C547300F5D873EC
:1045500003EB01139B681B0E937300F5D87303EBF9
:104560000113DB68D37300F5D87303EB0113DB6829
:104570001C0A147400F5D87303EB0113DB681C0CE0
:10458000547400F5D87303EB0113DB681B0E9374AE
:1045900021B9C36843F02003C36003E0036943F01B
:1045A0002003036110BD21B9C26842F02002C2603D
:1045B00003E0026942F020020261704702460020D7
:1045C00019B9D36803F0030006E0012903D1136988
:1045D00003F0030000E00020704710B502460B46D0
:1045E00000204FF6FF71BBB9146824F0020444F0B8
:1045F0000104146000E0491E546804F00304012C17
:1046000001D00029F7D1546804F00304012C01D033
:10461000002032E0012030E0012B13D1146824F097
:104620000304146000E0491E546804F003040CB154
:104630000029F8D1546804F003040CB100201CE0F8
:1046400001201AE0022B17D1146824F0010444F071
:104650000204146000E0491E546804F00304022CB4
:1046600001D00029F7D1546804F00304022C01D0D2
:10467000002002E0012000E0002010BD01460020E3
:104680000A6822F0010242F002020A604A6802F05F
:104690000302022A00D10120704701464FF6FF7243
:1046A00000200B6823F002030B6000E0521E4B68F1
:1046B00003F00203022B01D1002AF7D14B6803F06B
:1046C0000203022B00D001207047014600208A69B6
:1046D00002F070007047014600208A69100E704792
:1046E000014600208A69C2F3074070471AB1436946
:1046F0000B43436102E043698B434361704710B54C
:104700000246002001F4700343B19369C1F313041E
:1047100023400BB101202DE000202BE001F080733D
:1047200043B15368C1F3130423400BB1012021E0CE
:1047300000201FE001F0006343B19368C1F313044C
:1047400023400BB1012015E0002013E001F00073BD
:1047500043B1D368C1F3130423400BB1012009E036
:10476000002007E01369C1F3130423400BB10120BB
:1047700000E0002010BD0022244B994202D100230A
:10478000836111E0C1F3130201F000730BB1C26049
:104790000AE001F080630BB1026105E001F0006303
:1047A0000BB1826000E0426070470246002002EADE
:1047B00001030BB1012000E00020704770B50446F2
:1047C0000D46002660692840002872D0B5F5807F2C
:1047D00069D01DDC082D42D006DC012D2DD0022D24
:1047E00031D0042D7FD134E0102D3ED0202D42D089
:1047F000402D78D145E000000300000400030008CC
:1048000000000310000100080001FFF77000F03005
:10481000B5F5004F61D009DCB5F5007F4AD0B5F59C
:10482000806F4DD0B5F5006F5DD150E0B5F5803F9C
:104830002DD0B5F5003F56D12FE0A0685549FFF7C0
:10484000B4FF064651E0E0680321FFF7AEFF0646DD
:104850004BE0E0680821FFF7A8FF064645E0E06866
:104860001021FFF7A2FF06463FE020690321FFF772
:104870009CFF064639E020690821FFF796FF0646AF
:1048800033E020691021FFF790FF06462DE06068B5
:104890000821FFF78AFF064627E060681021FFF72E
:1048A00084FF064621E0A0690121FFF77EFF06464E
:1048B0001BE01BE0A0690221FFF777FF064614E02A
:1048C000A0690421FFF771FF06460EE00BE0A06926
:1048D0007021FFF76AFF064607E060680421FFF7D2
:1048E00064FF064601E0002600BF00E000263046D7
:1048F00070BDB1F5007F3AD00FDC202928D006DC4E
:1049000001291CD004291DD0082940D11DE04029CF
:1049100021D0B1F5807F3AD126E0B1F5004F31D0FA
:1049200006DCB1F5806F25D0B1F5006F2FD124E002
:10493000B1F5803F12D0B1F5003F28D111E0154A02
:10494000826025E00822C26022E01022C2601FE0DF
:10495000082202611CE01022026119E00822426074
:1049600016E01022426013E00422426010E00422AC
:1049700042600DE0042242600AE0002282610422CB
:10498000426005E0002282610422426000E000BF34
:1049900000BF70470101010010B50446FE48844283
:1049A00008D101210846FFF730F800210120FFF768
:1049B0002CF89DE0B4F1804F08D101210846FFF7A3
:1049C00013F800210120FFF70FF891E0F34884422B
:1049D00008D101210220FFF707F800210220FFF78C
:1049E00003F885E0EE48844208D101210420FEF757
:1049F000FBFF00210420FEF7F7FF79E0E94884423D
:104A000008D101210820FEF7EFFF00210820FEF762
:104A1000EBFF6DE0E448844208D101211020FEF74D
:104A2000E3FF00211020FEF7DFFF61E0DF48844252
:104A300008D101212020FEF7D7FF00212020FEF71A
:104A4000D3FF55E0DA48844208D101210220FEF765
:104A5000DCFF00210220FEF7D8FF49E0D548844260
:104A600009D101210804FEF7D0FF00214FF4803066
:104A7000FEF7CBFF3CE0D048844209D10121480435
:104A8000FEF7C3FF00214FF40030FEF7BEFF2FE01A
:104A9000CA48844209D101218804FEF7B6FF0021EB
:104AA0004FF48020FEF7B1FF22E0C548844208D1D0
:104AB00001214020FEF798FF00214020FEF794FFDF
:104AC00016E0C048844208D101218020FEF78CFF07
:104AD00000218020FEF788FF0AE0BB48844207D10E
:104AE00001218015FEF780FF0021A015FEF77CFF55
:104AF00010BD00220288A84B98420ED0AC4B9842C1
:104B00000BD0B0F1804F08D0A44B984205D0A44BF5
:104B1000984202D0A34B984204D14FF68F731A40AB
:104B20004B881A43A04B984207D0A04B984204D020
:104B30004FF6FF431A400B891A4302804B68C36249
:104B40000B880385944B984202D0994B984201D12F
:104B50008B7A03860123838270474FF0FF314160D7
:104B6000002101800181418081727047018582822C
:104B700070470A46002101884FF68F731940114390
:104B80000180704741627047C16270470146486AC0
:104B900070470146088D704721B1028842F0020239
:104BA000028004E002884FF6FD731A4002807047CD
:104BB00021B1028842F00402028004E002884FF62C
:104BC000FB731A400280704721B1028842F08002D4
:104BD000028004E002884FF67F731A40028070471B
:104BE00002884FF6F7731A40028002880A43028057
:104BF000704702884FF6FF431A40028002880A433A
:104C00000280704721B1028842F00102028004E074
:104C100002884FF6FE731A400280704770B5002478
:104C200000220023058C4FF6FE7635400584028C69
:104C30008388048B4FF68F752C40B51E2C400D8851
:104C40002C43751E2A408D892A434D882A43524D94
:104C5000A84202D0564DA84213D14FF6F7752A400C
:104C6000CD892A434FF6FB752A408D882A434FF69B
:104C7000FF652B404FF6FF552B400D8A2B434D8A85
:104C80002B43838004838D684563028470BD70B5B7
:104C9000002400220023058C4FF6EF763540058472
:104CA000028C8388048B48F6FF752C404FF6FF4535
:104CB0002C400D884FF6FF7606EA05252C434FF66B
:104CC000DF752A408D8906EA05152A434D8806EAD4
:104CD00005152A43304DA84202D0354DA8421DD1BA
:104CE0004FF67F752A40CD894FF6FF7606EA051507
:104CF0002A434FF6BF752A408D8806EA05152A43D8
:104D00004FF6FF352B404FF2FF752B400D8A06EA18
:104D100085052B434D8A06EA85052B438380048352
:104D20008D688563028470BD70B500240022002365
:104D3000058C4FF6FF6635400584028C8388848B92
:104D40004FF68F752C404FF6FC752C400D882C4388
:104D50004FF6FF552A408D894FF6FF7606EA052566
:104D60002A434D8806EA05252A430B4DA84202D066
:104D70000F4DA84238D14FF2FF752A40CD894FF62A
:104D8000FF7606EA05252A434FF6FF352A408D882F
:104D900006EA05252A4319E000000140000400400E
:104DA00000080040000C00400010004000140040CB
:104DB000000401400040014000440140004801401F
:104DC00000180040001C0040002000404EF6FF7517
:104DD0002B404DF6FF752B400D8A06EA05152B4337
:104DE0004D8A06EA05152B43838084838D68C5634D
:104DF000028470BD70B5002200230024058C4EF69D
:104E0000FF7635400584038C8488828B48F6FF75D5
:104E10002A404FF6FF452A400D884FF6FF7606EAF6
:104E200005252A434DF6FF752B408D8906EA053589
:104E30002B434D8806EA05352B43FE4DA84202D090
:104E4000FD4DA84208D14BF6FF752C400D8A4FF658
:104E5000FF7606EA85152C43848082838D6805647D
:104E6000038470BD00210180418081808160818147
:104E7000C18101824182704770B503460020002441
:104E80001846183001258D40ACB21D8CA5431D84F9
:104E900009B108290AD100EB610005684FF68F7649
:104EA000354005600568154305600FE00D1FC5F32B
:104EB0004E052844056848F6FF76354005600568CC
:104EC0004FF6FF7606EA02263543056070BD416362
:104ED000704781637047C1637047016470470A4639
:104EE0000021018B4FF68F731940114301837047E6
:104EF0000A460021018B48F6FF7319404FF6FF73F5
:104F000003EA02231943018370470A460021818B7B
:104F10004FF68F7319401143818370470A46002171
:104F2000818B48F6FF7319404FF6FF7303EA0223A3
:104F30001943818370470A460021018B4FF6F773AE
:104F400019401143018370470A460021018B4FF23B
:104F5000FF7319404FF6FF7303EA022319430183DD
:104F600070470A460021818B4FF6F77319401143B1
:104F7000818370470A460021818B4FF2FF731940ED
:104F80004FF6FF7303EA02231943818370470A46F1
:104F90000021018B4FF6FB731940114301837047C9
:104FA0000A460021018B4FF6FF3319404FF6FF737D
:104FB00003EA02231943018370470A460021818BCB
:104FC0004FF6FB7319401143818370470A46002155
:104FD000818B4FF6FF3319404FF6FF7303EA02232C
:104FE0001943818370470A460021018B4FF67F7376
:104FF00019401143018370470A460021018BC1F318
:105000000E014FF6FF7303EA022319430183704731
:105010000A460021818B4FF67F731940114381832B
:1050200070470A460021818BC1F30E014FF6FF73D2
:1050300003EA02231943818370470A460021018C49
:105040004FF6FD7319401143018470470A46002151
:10505000018C4FF6F77319401143018470470A46DB
:105060000021018C4FF6DF7319404FF6FF7303EAFE
:1050700002131943018470470A460021018C4FF640
:105080007F7319404FF6FF7303EA0213194301843B
:1050900070470A460021018C4FF6FF5319404FF626
:1050A000FF7303EA02231943018470470A46002173
:1050B000018C4FF2FF7319404FF6FF7303EA02238E
:1050C0001943018470470A460021018C4DF6FF7395
:1050D00019404FF6FF7303EA023319430184704706
:1050E00030B5002301248C40A3B2048C9C4304847B
:1050F000048C02FA01F5ADB22C43048430BD30B506
:10510000002304248C40A3B2048C9C430484048CAC
:1051100002FA01F5ADB22C43048430BD828B4FF20C
:10512000FF331A408283828B4FF6FF7303EA012319
:105130001A4382837047F0B50C46154600210022C1
:105140000026078C4EF6FF7C07EA0C070784818B4C
:10515000028C4FF6FF7707EA043640F6FF473940E6
:105160004FF6FF7707EA052739434FF6FF7707EA3F
:105170000337394345F6FF773A4046F480573A43C0
:1051800081830284F0BD828B4FF6F3731A408283D1
:10519000828B0A4382837047F0B50C461546002186
:1051A00000220026078C4FF6FF6C07EA0C070784E5
:1051B000818B028C4FF6FF7707EA04264FF60C77B7
:1051C00039404FF6FF7707EA03172F4339434FF271
:1051D000FF573A4046F480773A4381830284F0BD1A
:1051E000028B4FF2FF331A400283028B4FF6FF739C
:1051F00003EA01231A4302837047F0B50C461546B3
:10520000002100220026078C4FF6EF7C07EA0C07EE
:105210000784018B028C4FF6FF7707EA041640F6ED
:10522000FF4739404FF6FF7707EA033739434FF618
:10523000FF7703E0000001400004014007EA052772
:1052400039434FF65F773A4046F010073A430183FF
:105250000284F0BD028B4FF6F3731A400283028B77
:105260000A4302837047F0B50C4615460021002220
:10527000068C4FF6FE773E400684018B028C4FF67B
:105280000C7631407E1C06EA03162E4331434FF65E
:10529000F576324044F00106324301830284F0BDCA
:1052A00070B505460C46208850B92389A2886188CC
:1052B0002846FFF7D8FFE1882846FFF7CBFF25E017
:1052C000208804280AD12389A28861882846FFF70C
:1052D00094FFE1882846FFF783FF17E0208808281D
:1052E0000AD12389A28861882846FFF755FFE18803
:1052F0002846FFF748FF09E02389A28861882846ED
:10530000FFF719FFE1882846FFF708FF70BD00216D
:1053100001804180012181800021C180018170478D
:105320002DE9F04105460C4600260127608808B9A2
:10533000022600E00026A088012801D1022700E013
:1053400001272088A0B92389A28861882846FFF711
:105350008AFFE1882846FFF77DFF23893A463146D8
:105360002846FFF74AFFE1882846FFF739FF13E098
:105370002389A28861882846FFF73FFFE1882846F5
:10538000FFF72EFF23893A4631462846FFF76BFF89
:10539000E1882846FFF75EFFBDE8F0810146486BD3
:1053A00070470146886B70470146C86B70470146DD
:1053B000086C70470A884B881A438B881A43CB883D
:1053C0001A430B891A434B891A438B891A43A0F855
:1053D000442070470021018041808180C18001818B
:1053E00041818181704731B1B0F8442042F40042DC
:1053F000A0F8442005E0B0F84420C2F30E02A0F863
:105400004420704721B1828842F00402828004E087
:1054100082884FF6FB731A408280704721B18288E0
:1054200042F00102828004E082884FF6FE731A4047
:10543000828070471AB183890B43838102E083899C
:105440008B43838170478182704702460020138A14
:105450000B400BB1012000E000207047CA430282DC
:10546000704730B50246002000230024158A05EA63
:105470000103958905EA010413B10CB1012000E094
:10548000002030BDCA430282704741EA0203A0F8FF
:10549000483070471AB183890B43838102E08389C6
:1054A0008B438381704721B1828842F00802828059
:1054B00004E082884FF6F7731A40828070470189B2
:1054C0004FF6F8721140018170470A4600210189A8
:1054D0004FF68F73194011430181704730B5044670
:1054E0000D4629462046FFF7F0FF208940F00700CF
:1054F000208130BD2DE9F04104460D4616461F4679
:10550000602D06D13B46012231462046FFF775FE4D
:1055100005E03B46012231462046FFF7A4FE29461E
:105520002046FFF7D2FF208940F007002081BDE828
:10553000F08130B50C4600210189C9B24FF6FF75E4
:1055400005EA0325154325432943018130BD2DE993
:10555000F04105460E4617469846002443463A4613
:1055600031462846FFF7E5FF2C894FF6F8700440D6
:1055700044F007044FF68F70044044F070042C810F
:10558000BDE8F081F0B504460D4616461F463B4681
:10559000324629462046FFF7CCFF208940F4804060
:1055A0002081F0BD82884FF68F731A4082808288F6
:1055B0000A438280704702894FF6F8731A400281CD
:1055C00002890A430281704702894FF67F731A40AD
:1055D000028102890A4302817047F0B50C461546E4
:1055E0001E460021002200230189028B038C4FF606
:1055F000F877394021434FF6FC473A4040F2011713
:105600003A434FF6DD773B404FF6FF7707EA061740
:105610002F433B43018102830384F0BD21B1828883
:1056200042F08002828004E082884FF67F731A4045
:1056300082807047A0F850107047000030B50346D4
:105640000C46D3F80802007860B9002106E000207B
:10565000D3F80C5245F82100481CC1B293F805025A
:105660008842F4DC002030BD10B50446AFF23303AD
:10567000002241F20301204600F04CFD0020D4F846
:105680000812087010BD70472DE9FE4304460D4610
:1056900090461E460A9FD4F81402008880B2ADF8E6
:1056A000000000208DF80200E8B28DF80400290AFD
:1056B0008DF805108DF8068066B900218DF8071069
:1056C0008DF808108DF809108DF80A108DF80B1060
:1056D000052708E0052F00DD05273A4631460DF184
:1056E000070006F038F9F81CC0B28DF803006946CF
:1056F000D4F8E001FBF7ECFABDE8FE832DE9F843AE
:1057000004460E4690469946002517E004F50670BB
:1057100030F82500B0420FD104F5067000EB85008B
:10572000C07810B10020BDE8F883012104F50670AF
:1057300000EB8500C17003E0681CC5B2082DE5DBF5
:1057400000BF082D0DD1002508E004F5067000EB20
:105750008500C07800B903E0681CC5B2082DF4DBF1
:1057600000BF082D01D10120DDE704F5067020F807
:10577000256000EB850080F80280012104F50670A9
:1057800000EB8500C170012084F804020025002789
:105790000EE004F5067000EB8500C078012805D105
:1057A00004F5067000EB850080780743681CC5B2DD
:1057B000082DEEDBD4F81002077094F80502401EA5
:1057C000C5B20BE0D4F80C0200EB850050F8040CD5
:1057D000D4F80C1241F82500681EC5B2002DF1DC8A
:1057E00046EA0940D4F80C120860D4F808020078A0
:1057F00094F80512884206DAD4F808020078401CB2
:10580000D4F8081208707B20005D50B10020009091
:10581000D4F810020278002331462046FFF734FF07
:1058200081E701207FE72DE9F84305460F464FF059
:105830000008002408E005F5067030F82400B8429E
:1058400000D103E0601CC4B2082CF4DB00BF082CBC
:1058500035D005F5067000EB8400C07801282ED104
:10586000002105F5067000EB8400C17000240026BD
:105870000FE005F5067000EB8400C078012806D122
:10588000804605F5067000EB840080780643601CB6
:10589000C4B2082CEDDBB8F1000F0DD1002085F863
:1058A00004027B20405D38B10020034602460146D9
:1058B00000902846FFF7E8FED5F810020670BDE814
:1058C000F8832DE9F04105460C46E078082801D020
:1058D000BDE8F081207800F07F062179607941EA07
:1058E000002794F8068043463A4631462846D5F8C4
:1058F00038C2E04700BFEBE77047000002460F20C8
:10590000802902DA02F1B003585C704770B5044692
:105910000D46D4F89C0050F82500C0F307464FF020
:10592000FF30D4F8A01021F81500012104F1B000D7
:10593000815531462046D4F8AC20904770BD2DE902
:10594000FE4F04460F46387800F07F05B8780128EE
:1059500029D120680078A8427BD12068007800F522
:10596000E066ADF8006001208DF8030000208DF89E
:10597000020094F878008DF8040094F8DC0148B136
:105980009DF8040040F080008DF80400002084F8A9
:10599000DC0102E0012084F8DC016946D4F8E00172
:1059A000FBF796F955E0387900F07F08D4F83C0110
:1059B000017804F5A07041559038405D404509D00C
:1059C000424629462046D4F8D831984704F1B00021
:1059D00000F8058004F1B000405D20B9294620465A
:1059E000D4F8D421904704F1B000405D0F282FD0A7
:1059F000002627E0D4F89C0050F82600C0F30749A1
:105A00004D451DD1D4F89C0030F826001FFA80FACD
:105A1000D4F8A01031F9160004F0C9FE4FF47A70E2
:105A2000BAFBF0FB00205B46AFF21F12314600903C
:105A3000204604F067FED4F8A01021F8160000BF3D
:105A4000701CC6B2D4F898000078B042D2DC00BF17
:105A500000BFBDE8FE8FFEB504460E46D4F8A40094
:105A60000088A8B12068007800F5E065ADF8005026
:105A700001208DF8030000208DF8020094F87800D2
:105A80008DF804006946D4F8E001FBF721F905E040
:105A9000B4F9A80004F08BFEA4F8A800FEBD70B510
:105AA00004460E46D4F83801008860B3002527E08C
:105AB00004F1B000405D0F2820D020680078A84293
:105AC0001CD004F5A070405D00280BDCD4F8340134
:105AD00020B129462046D4F834219047012104F111
