:020000040800F2
:10000000301D0020D5370008850700088707000845
:100010008B0700088F070008930700080000000006
:10002000000000000000000000000000970700082A
:1000300099070008000000009B0700089D070008C2
:10004000EF370008EF370008EF370008EF370008F8
:10005000EF370008EF370008EF370008EF370008E8
:10006000EF370008EF370008EF370008EF370008D8
:10007000EF370008EF370008EF370008EF370008C8
:10008000EF370008EF370008EF370008EF370008B8
:10009000E50C0008EF370008EF370008EF370008DD
:1000A000EF370008EF370008EF370008EF37000898
:1000B000EF370008F12D0008090E0008EF3700089F
:1000C000EF370008EF370008EF370008EF37000878
:1000D000EF3700085F370008EF3700086D2B000886
:1000E000EF370008EF370008EF370008EF37000858
:1000F000EF370008EF370008EF370008EF37000848
:10010000EF370008EF3700086F2D0008EF370008C1
:100110007D2E0008EF370008EF370008ED2C0008AF
:10012000EF370008EF370008EF370008EF37000817
:10013000EF370008EF370008EF370008EF37000807
:10014000310D0008EF370008EF370008EF370008DF
:10015000EF370008EF370008EF370008EF370008E7
:10016000EF370008EF370008EF370008EF370008D7
:10017000EF370008EF370008EF370008EF370008C7
:10018000EF370008EF37000800F002F800F0B2F88F
:100190000AA090E8000C82448344AAF10107DA45E2
:1001A00001D100F0A7F8AFF2090EBAE80F0013F082
:1001B000010F18BFFB1A43F001031847D4E60000F3
:1001C000F4E600000A444FF0000C10F8013B13F075
:1001D000070408BF10F8014B1D1108BF10F8015BA0
:1001E000641E05D010F8016B641E01F8016BF9D193
:1001F00013F0080F1EBF10F8014BAD1C0C1B09D1EA
:100200006D1E58BF01F801CBFAD505E014F8016B5B
:1002100001F8016B6D1EF9D59142D6D370470000ED
:100220000023002400250026103A28BF78C1FBD8FF
:10023000520728BF30C148BF0B6070476E290CF0D1
:100240004F8270290CF0A38366290EF0DC816529AA
:100250000EF0D98167290EF0D68161290EF0D58183
:1002600003681B0A28BF41F0800169290BF0A087B1
:1002700064290BF09D8775290BF09A876F290CF084
:10028000308378290CF06F83E9290CF0CB82E429C4
:100290000CF0C882F5290CF0C582EF290CF02D83F3
:1002A000F8290CF06E830368DB0928BF41F0800158
:1002B00063290CF0838773290CF08887E3290CF0FD
:1002C0009387F3290CF09887002070471FB50EF034
:1002D00095F90CF0E7FF0400002000210DF0D2FC9E
:1002E000401C6060002000210DF0B6FCE0601FBDE6
:1002F00010B510BD0CF0A8FF1146FFF7E7FF00F0A6
:1003000026F90DF081F803B4FFF7F2FF03BC03F008
:10031000B9F9000070B505460C461646012D16D1F8
:10032000012C11D0022C0FD0032C0DD0042C0BD09B
:10033000052C09D0062C07D0072C05D0082C03D09B
:10034000092C01D00A2C02D1022002F075F9022DED
:1003500004D1012C02D1012002F06EF9EF480570A2
:1003600044708670FF2000F084FD002070BD10B541
:1003700004462088322808DD00F0E9FF00202080B4
:10038000012211461046FFF7C5FF10BD3EB50446D9
:100390009FEDE30A8DED020A9FEDE10A8DED010A62
:1003A000002500200090207855283DD16078AA28AB
:1003B0003AD12079DB4908706088009008460178BE
:1003C000A01D00F037FD0546BDF80000854200D0B5
:1003D0003EBDD548006808B9012000E00020D249A0
:1003E00008606079012804D004280FD0082819D1AA
:1003F00013E0D4F806000290D4F80A000190DDED75
:10040000010A9DED020A01F025FE0CE0C74802F04A
:10041000CEFE042000F02DFD05E0A17948B202F0E7
:100420000BF900E000BF00BF00BFD1E710B5C04826
:10043000006800284CD1032000F01BFDBD48007867
:1004400000F0010070B9022000F013FD00F093FFEE
:10045000B548001D006808B9012000E00020B2493D
:10046000091D0860B4480088C01360B1C822B349B0
:10047000B3480BF0E8FFB248FFF788FF0020AE4911
:100480000880B0490880AB480068E121B0FBF1F278
:1004900001FB120028B9A54802F089FE042000F0F3
:1004A000E8FCA44800681E21B0FBF1F201FB120039
:1004B00028B9A54802F032FF0A2000F0DAFCA14872
:1004C000FFF755FF9B480068401C9A4908600FE001
:1004D0009748006801280BD101F03CFD9248001DAF
:1004E000006808B9012000E000208F49091D08605C
:1004F00094480088401C9349088010BD10B54FF403
:10050000A06003F087F9A82003F03AF84FF4E13037
:1005100003F0C6F84FF4E13002F055FB00F093FA17
:100520004FF4165002F0C3FC02F05CFE41F288303A
:1005300003F088F80BF01DF9002000F040FF0120C7
:1005400000F03DFF00F079FD02F002F910BDFFF769
:10055000D5FF1DE07D497E4800F09BFB0A2003F09B
:1005600071F8FFF763FF7B480088401C79490880D9
:1005700008460088142190FBF1F201FB120038B903
:100580006948006808B9012000E000206649086059
:10059000E0E7012806D170494979704A11706E4927
:1005A00009795170022806D16B4949796C4A11705A
:1005B0006949097951707047012806D16649C9799E
:1005C000684A1170644989795170022806D16249DC
:1005D000C979654A1170604989795170704701285D
:1005E0000CD15D490979614A11705B4949795170B3
:1005F0005949897991705849C979D17002280CD12B
:10060000554909795A4A11705349497951705249EB
:10061000897991705049C979D17070470FB5012817
:1006200011D14D4909890291BDF9081000EE101A47
:10063000B8EEC00ADFED4F0A80EE201A8DED001AE9
:100640004D49009A0A60022811D143490989039152
:10065000BDF90C1000EE101AB8EEC00ADFED450A25
:1006600080EE201A8DED011A4449019A0A600FBDEF
:1006700070B5002500243848008840F28232811A83
:10068000904227D008DCA0F2812058B1012819D06F
:10069000B0F5807F2FD10DE0A1F2FF1111B3012938
:1006A00029D120E00120FFF79AFF0120FFF7B6FFD4
:1006B000641C21E00120FFF76CFF0120FFF77CFFA5
:1006C000641C19E00220FFF78AFF0220FFF7A6FF53
:1006D0006D1C11E00220FFF75CFF0220FFF76CFFAA
:1006E000641C09E000BF1C480079602802D001208A
:1006F0002349087000E000BF00BF281B002801DB71
:10070000014600E041420A2906DD00F020FE0222F7
:1007100000210120FFF7FEFD70BD00003C0100201C
:10072000000000003F010020AC024042EC0F00201E
:10073000100243420C00002088010020FA0F002024
:100740005C0900201000002000000020B40C0020F4
:100750000064004008000020380A00203601002014
:100760003801002032010020340100202201002045
:1007700026010020000070432A0100202E010020E5
:100780003B010020704700BFFEE700BFFEE700BF4F
:10079000FEE700BFFEE770477047704770470000F4
:1007A0000CB50020019000907648006840F480303D
:1007B0007449086000BF7348006800F4003000907E
:1007C0000198401C0190009818B90198B0F5A04F0D
:1007D000F1D16C48006800F4003010B101200090A5
:1007E00001E0002000900098012846D16548403083
:1007F000006840F0805063494031086062480068FA
:1008000040F44040604908605E48083000685D4937
:10081000083108600846006840F400400860084657
:10082000006840F4A05008605848091F0860081F7D
:10083000006840F08070091F086000BF51480068E0
:1008400000F000700028F9D040F2057050490860AF
:100850004C480830006820F003004A49083108601D
:100860000846006840F00200086000BF45480830B4
:10087000006800F00C000828F8D10CBD10B5454800
:10088000006840F47000434908603E48006840F04A
:1008900001003C49086000203A49083108603948A5
:1008A00000683D490840374908603C48091D086018
:1008B000081F006820F48020091F086000203149CB
:1008C0000C310860FFF76CFF4FF000603149803950
:1008D000086010BD70B50020002202230024022110
:1008E000284D08352D6805F00C0020B1042806D0ED
:1008F000082834D107E02A4D2A4E356033E02A4DCE
:10090000284E35602FE01F4D2D1D2D68C5F38054F6
:100910001C4D2D1D2D6805F03F0154B1224DB5FB36
:10092000F1F5184E361D3668C6F3881605FB06F23B
:1009300009E01B4DB5FBF1F5124E361D3668C6F3C6
:10094000881605FB06F20F4D2D1D2D68C5F30145D8
:100950006D1C6B00B2FBF3F5124E356003E0104DD9
:10096000104E356000BF00BF064D08352D68C5F339
:1009700003150E4E705D0B4D2D68C540094E356058
:1009800070BD00000038024000700040085440076D
:10099000003C024088ED00E0FFFFF6FE103000242E
:1009A0000024F4001400002000127A001800002037
:1009B00010B5044614B10120704908706F480078E2
:1009C00058B36F48006858B16D48001F006838B1CF
:1009D0006B480838006818B16A48006801281CD1C3
:1009E0000A2002F02FFE0020644908706448006865
:1009F00008B9012010BD6248001F006808B9022034
:100A0000F8E75F480838006808B90320F2E75D4856
:100A10000068012815D10420ECE759480068012836
:100A20000FD15748001F006801280AD154480838E0
:100A30000068012805D15348006810B901204F49CA
:100A400008700020D6E71CB50121084603F076FAAD
:100A50000121202003F072FA0121402003F06EFAF8
:100A60000121402003F06AFA0121102003F066FA08
:100A70000121102003F062FA4FF4C05000900120D1
:100A80008DF8040003208DF8050000208DF8060085
:100A900001208DF8070069463B4802F0B1FF4FF492
:100AA0008070009001208DF8040003208DF805006F
:100AB00000208DF8060001208DF8070069463348B4
:100AC00002F09EFF4020009000208DF804000220DC
:100AD0008DF8070069462E4802F092FF4FF400405F
:100AE000009001208DF8040003208DF805000020FF
:100AF0008DF8060002208DF807006946234802F0B1
:100B00007FFF3C20009001208DF8040000208DF82C
:100B1000060003208DF8050002208DF807006946C5
:100B20001B4802F06DFF8020009000208DF804002B
:100B300001208DF807006946164802F061FF4FF466
:100B40008070009000208DF8040001208DF80700CF
:100B50006946104802F054FF00200F4908600F4911
:100B6000C1F88C020C49091D08600B490C3908605A
:100B700001200349743108601CBD00002C000020D6
:100B800010024242000240420000024000140240B3
:100B90000018024000100240940243420000434209
:100BA00030B58BB005460C460121022003F0C6F992
:100BB0000121480603F00BFA4FF44070099002201F
:100BC0008DF8280000208DF82A0003208DF82900D8
:100BD00001208DF82B0009A95A4802F011FF0922C3
:100BE0000821584802F097FF09221146554802F0A3
:100BF00092FF00208DF81E008DF81F008DF8200058
:100C000001208DF8210000208DF822008DF82300AE
:100C10008DF81A008DF81B0005208DF81C000620A9
:100C20008DF81D00A0B2ADF8180006A9464803F0E3
:100C30001CFD00208DF812008DF8130001208DF8A6
:100C400014000020ADF80800ADF80A00ADF80C0063
:100C5000ADF80E00ADF8100001208DF8150002A8C7
:100C600003F08DFD01220221374804F087F814209B
:100C70008DF8040001208DF8050000208DF8060095
:100C800001208DF8070001A802F0C9FD00200BB07B
:100C900030BDF0B585B007460C4620880090002096
:100CA0000190A0788DF8090000208DF80800E07808
:100CB0008DF80A00002506E0201D415D0DF10B00B6
:100CC0004155681CC5B2E078A842F5DC6946384653
:100CD00003F044FE0646042E02D1012005B0F0BD0B
:100CE0000020FBE710B50024184A0021164803F045
:100CF0002AFF16480088164908801448407A8870F0
:100D00001248807AC87000BF06E010480B30015DC1
:100D10000F48001D0155641C0D48C078A042F4D84E
:100D2000FFF7A6FC0A490B48006809F0CBFF10BD8D
:100D300000B585B06A460021074803F004FF05B0FE
:100D400000BD00000004024000640040240A0020AE
:100D5000380A0020280000200068004010B5044632
:100D60002146324804F058FA10BD10B52F4804F05F
:100D700055FA84B22E480068844203D92C48006892
:100D8000201A10BD2A480068001BFAE70EB5532050
:100D9000ADF800000020ADF8020040F2E73001900D
:100DA0000020ADF808008DF80A0069461F4804F0DD
:100DB000E8F9012202211D4804F084FE00211B48AD
:100DC00004F068FA0EBD08B51E208DF80000012061
:100DD0008DF801008DF802008DF80300684602F0DE
:100DE0001EFD08BD10B50121042003F0F0F810BD70
:100DF00010B5FFF7F7FFFFF7E6FFFFF7C7FF10BDDE
:100E000010B5FFF7F5FF10BD10B50221074804F03B
:100E100070FE50B1054804F001FA0549086002214E
:100E2000024804F077FE0AF053FA10BD00080040B3
:100E30003000002030B502464FF6FF7001B90121A5
:100E400011E01478604000230AE000F0010424B1AE
:100E500040104AF20104604000E040105C1CE3B224
:100E6000082BF2DB521C0C1EA1F10105E9B2E8D1FE
:100E700030BD70B5044600250026C821FA480BF0A5
:100E800027FBAA20F84908705520487000200871F7
:100E900008464471042C45D004DC022C1CD0032CE1
:100EA0007FD104E00A2C6AD0FF2C7AD130E01020E8
:100EB000ED4908710846ED490968C0F80610EC498B
:100EC0000968C0F80A10EB490968C0F80E10EA4931
:100ED0000968C0F8121065E00820E3490871E74886
:100EE00040788871E5480078C871E5484078087214
:100EF000E34800784872E34840788872E148007817
:100F0000C872E14840780873DF480078487349E0C8
:100F10000320D54908710846DC490A88C2808978CF
:100F200001723FE00C20D0490871D948807A88715D
:100F3000D7488078C871D648408800120872D448D3
:100F400000784872D248008800128872D048007B2E
:100F5000C872CF48808900120873CD48007A487360
:100F6000CB48008900128873C9488079C873C84883
:100F7000C08800120874C6480079487412E008203E
:100F8000B94908710846C3494988C180C1490988DF
:100F90000181C04989884181BE49C988818101E0B8
:100FA000FFE700BF00BFB0480179801DFFF742FF97
:100FB0000646AD498E703012C87008460079A0B15F
:100FC00000250DE000BF4021B34803F0D5FA00280A
:100FD000F9D0A548415DB04803F01EFA681CC5B2BF
:100FE000A1480079801DA842ECDCC8219E480BF086
:100FF0006FFA70BD70B50446002500BF2146A748B2
:10100000FFF747FE052002F01DFB681CC5B2052D49
:101010000DDB0020A249087001209C490870A079CE
:101020004870E0798870FF20FFF723FF70BD9C486F
:1010300000780028E2D100BFF8E710B59948FFF723
:10104000D9FF98480C30FFF7D5FF9648FFF7D2FF3D
:1010500094480C30FFF7CEFF40F2DC5002F0F2FA79
:101060009148FFF7C7FF90480C30FFF7C3FF8F4848
:10107000FFF7C0FF8D480C30FFF7BCFF4FF4FA704C
:1010800002F0E0FA8748FFF7B5FF86480C30FFF71B
:10109000B1FF0024C0E004EB4401824A02EB81006E
:1010A000FFF7A8FF04EB4401814A02EB8100FFF740
:1010B000A1FF04EB44017F4A02EB8100FFF79AFF96
:1010C00004EB44017C4A02EBC100FFF793FF04EB01
:1010D0004401794A02EBC10101F10C00FFF78AFFDC
:1010E00004EB44016F4A02EB8100FFF783FF04EB3E
:1010F0004401724A02EBC100FFF77CFF04EB44019C
:101100006E4A02EBC10101F10C00FFF773FF04EB23
:1011100044016B4A02EBC100FFF76CFF04EB440192
:10112000674A02EBC10101F10C00FFF763FF04EB1A
:101130004401644A02EB0110FFF75CFF04EB440139
:10114000604A02EB011101F10C00FFF753FF04EBC1
:1011500044015C4A02EB011101F11800FFF74AFF5C
:1011600004EB4401574A02EB011101F12400FFF79F
:1011700041FF04EB4401544A02EBC100FFF73AFF80
:1011800004EB4401504A02EBC10101F10C00FFF7EE
:1011900031FF04EB44014D4A02EBC100FFF72AFF87
:1011A00004EB4401494A02EBC10101F10C00FFF7D5
:1011B00021FF04EB44013D4A02EB8100FFF71AFFD7
:1011C00004EB4401424A02EB8100FFF713FF04EBFA
:1011D0004401404A02EB8100FFF70CFF04EB44019D
:1011E0003D4A02EB8100FFF705FF04EB44013B4A57
:1011F00002EB8100FFF7FEFE04EB4401384A02EBEC
:101200008100FFF7F7FE04EB4401364A02EB810050
:10121000FFF7F0FE601CC4B2022CFFF63CAF10BD1D
:1012200070B502460C46114623462F4E31710D0A09
:1012300075710D0CB5710D0EF571042006E02A4D87
:101240002E5C274D2D1D2E54451CE8B2244DED7803
:101250008542F4DC244E33711D0A75711D0CB57185
:101260001D0EF571042047E0C2100020220100206D
:101270002A010020260100202E0100203601002036
:101280003201002038010020340100203C01002000
:10129000EC0F00200000002000100140006400401E
:1012A0003B0100207C0B00201C0B0020740A002056
:1012B000440A00205C0A0020340B0020940B00201C
:1012C000C40B0020F40B0020540C0020840C0020E0
:1012D0008C0A0020BC0A0020D40A0020640B0020E5
:1012E000A40A0020EC0A0020CC000020FE4D2E5C59
:1012F000FE4D2E54451CE8B2FC4D103DED7B854261
:10130000F4DC70BD10B5F9491039F948FFF7C1FC9C
:10131000022002F097F9F549091FF548FFF7B9FCDB
:10132000022002F08FF9F348007801280ED1F2492B
:10133000EF48FFF7AEFC022002F084F9EE490C31D1
:10134000EB48FFF7A6FC0020EA49087010BD10B575
:10135000EA49E748FFF79DFC022002F073F9E749EC
:101360000C31E348FFF795FC022002F06BF90120F5
:10137000E049087010BD10B5E148407800F0080061
:1013800020B9E048407800F0080030B1FFF7DFFFF7
:10139000032201210846FEF7BDFFD948407800F03E
:1013A000800020B9D748407800F0800030B1FFF7C6
:1013B000CEFF042201210846FEF7ACFF10BD10B598
:1013C000D14A32F8102000EB4003D04C24F82320FF
:1013D000CF4A127800EB400304EB83039A70CD4AA6
:1013E000127800EB400304EB8303DA7000210AE07B
:1013F000C94A535C00EB4002C44C04EB8202121D4C
:1014000053544A1CD1B200EB4002C04B03EB8202A2
:10141000D2788A42ECDCBC4A32F8102000EB400360
:10142000BE4C24F82320BA4A127800EB400304EBA8
:1014300083039A70B74A127800EB400304EB8303EE
:10144000DA7000210AE0B64A535C00EB4002B34C6C
:1014500004EB8202121D53544A1CD1B200EB40022D
:10146000AE4B03EB8202D2788A42ECDCA64A32F819
:10147000102000EB4003AB4C24F82320A44A127840
:1014800000EB400304EB83039A70A24A127800EB4E
:10149000400304EB8303DA7000210AE0A24A535CA4
:1014A00000EB40029F4C04EB8202121D53544A1C75
:1014B000D1B200EB40029B4B03EB8202D2788A420E
:1014C000ECDC914A32F8102000EB4003974C24F8F2
:1014D00023208F4A127800EB400304EB83039A70B9
:1014E0008C4A127800EB400304EB8303DA7000218E
:1014F0000AE08F4A535C00EB40028C4C04EB820202
:10150000121D53544A1CD1B200EB4002874B03EB2F
:101510008202D2788A42ECDC7B4A32F8102000EB5F
:101520004003844C24F82320794A127800EB4003CE
:1015300004EB83039A70774A127800EB400304EBC4
:101540008303DA7000210AE07B4A535C00EB40021F
:10155000784C04EB8202121D53544A1CD1B200EBAA
:101560004002744B03EB8202D2788A42ECDC664A7A
:1015700032F8102000EB4003704C24F82320644A1A
:10158000127800EB400304EB83039A70614A1278EF
:1015900000EB400304EB8303DA7000210AE0684AA1
:1015A000535C00EB4002654C04EB8202121D535465
:1015B0004A1CD1B200EB4002604B03EB8202D278AE
:1015C0008A42ECDC504A32F8102000EB4003474CD2
:1015D000103C24F823204E4A127800EB400304EB21
:1015E00083039A704B4A127800EB400304EB8303A9
:1015F000DA7000210BE03C4A535C00EB40023B4CAC
:10160000103C04EB8202121D53544A1CD1B200EB71
:101610004002364B103B03EB8202D2788A42EADC6E
:10162000394A32F8102000EB4003334C24F82320D1
:10163000374A127800EB400304EB83039A70354A73
:10164000127800EB400304EB8303DA7000210AE018
:101650003C4A535C00EB4002274C04EB8202121D13
:1016600053544A1CD1B200EB4002234B03EB8202DD
:10167000D2788A42ECDC244A32F8102000EB400396
:101680001E4C24F82320224A127800EB400304EB7E
:1016900083039A701F4A127800EB400304EB830324
:1016A000DA7000210AE0284A535C00EB4002134C38
:1016B00004EB8202121D53544A1CD1B200EB4002CB
:1016C0000E4B03EB8202D2788A42ECDC0E4A32F8EF
:1016D000102000EB40031D4C24F823200C4A127804
:1016E00000EB400334E00000CC000020B40A0020EE
:1016F000006400403A010020EC0A0020040B0020A6
:1017000036010020380100201C010020440A00207E
:101710002101002020010020AC0000205C0A0020F4
:10172000B4000020740A0020BC0000208C0A0020B5
:10173000C4000020BC0A0020D4000020D40A0020ED
:10174000DC000020E4000020EC000020C00C0020A1
:1017500004EB83039A70FE4A127800EB400304EB1B
:101760008303DA7000210AE0FA4A535C00EB40027E
:10177000F94C04EB8202121D53544A1CD1B200EB07
:101780004002F54B03EB8202D2788A42ECDCF34A4A
:1017900032F8102000EB4003F14C24F82320F14AEA
:1017A000127800EB400304EB83039A70E84A127846
:1017B00000EB400304EB8303DA7000210AE0EA4AFD
:1017C000535C00EB4002E64C04EB8202121D5354C2
:1017D0004A1CD1B200EB4002E14B03EB8202D2780B
:1017E0008A42ECDCDD4A32F8102000EB4003DF4C8B
:1017F00024F82320DB4A127800EB400304EB830338
:101800009A70D34A127800EB400304EB8303DA703A
:1018100000210AE0D64A535C00EB4002D34C04EBB3
:101820008202121D53544A1CD1B200EB4002CF4B2E
:1018300003EB8202D2788A42ECDCC84A32F81020EC
:1018400000EB4003CB4C24F82320C64A127800EB6F
:10185000400304EB83039A70BD4A127800EB400307
:1018600004EB8303DA7000210AE0C34A535C00EB07
:101870004002C04C04EB8202121D53544A1CD1B2E8
:1018800000EB4002BB4B03EB8202D2788A42ECDCD5
:10189000B24A32F8102000EB4003B84C24F8332051
:1018A000B04A127800EB400304EBC3039A70A84AD5
:1018B000127800EB400304EBC303DA7000210AE066
:1018C000AF4A535C00EB4002AC4C04EBC202121D69
:1018D00053544A1CD1B200EB4002A84B03EBC202A6
:1018E000D2788A42ECDC9D4A32F8102000EB4003AB
:1018F000A24C04EBC3039A819A4A137800EB40028E
:1019000004EBC2029373924A137800EB400204EB9B
:10191000C202D37300210BE0994A0832535C00EBFA
:101920004002964C04EBC202103253544A1CD1B20E
:1019300000EB4002914B03EBC202D27B8A42EBDC0C
:10194000002200EB40038F4C24F82320854A1278B4
:1019500000EB400304EB83039A70022200EB400388
:1019600004EB8303DA7000210CE0874A02EB4002AB
:10197000535C00EB4002834C04EB8202121D535473
:101980004A1CD1B200EB40027E4B03EB8202D278BC
:101990008A42EADC002200EB40037C4C24F823203E
:1019A000704A127800EB400304EB83039A70022222
:1019B00000EB400304EB8303DA7000210CE0744A6F
:1019C00002EB4002535C00EB4002704C04EB8202DD
:1019D000121D53544A1CD1B200EB40026B4B03EB77
:1019E0008202D2788A42EADC5C4A32F8102000EBAC
:1019F0004003684C24F833205A4A127800EB400325
:101A000004EBC3039A70524A127800EB400304EBD4
:101A1000C303DA7000210AE05F4A535C00EB400226
:101A20005C4C04EBC202121D53544A1CD1B200EBB1
:101A30004002584B03EBC202D2788A42ECDC474AA0
:101A400032F8102000EB4003524C04EBC3039A81A0
:101A5000444A137800EB400204EBC20293733C4A01
:101A6000137800EB400204EBC202D37300210BE0B9
:101A7000494A0832535C00EB4002464C04EBC20278
:101A8000103253544A1CD1B200EB4002414B03EBDD
:101A9000C202D27B8A42EBDC304A32F8102000EBE3
:101AA00040033E4C24F833202E4A127800EB4003CA
:101AB00004EBC3039A70264A127800EB400304EB50
:101AC000C303DA7000210AE0354A535C00EB4002A0
:101AD000324C04EBC202121D53544A1CD1B200EB2B
:101AE00040022E4B03EBC202D2788A42ECDC1B4A46
:101AF00032F8102000EB4003284C04EBC3039A811A
:101B0000184A137800EB400204EBC2029373104AA8
:101B1000137800EB400204EBC202D37300210BE008
:101B20001F4A0832535C00EB40021C4C04EBC2021B
:101B3000103253544A1CD1B200EB4002174B03EB56
:101B4000C202D27B8A42EBDC044A32F8102029E040
:101B500020010020F4000020C00C00201C01002007
:101B6000D80C002021010020FC000020F00C0020F7
:101B700004010020080D00200C010020340B00207F
:101B800034000020640B0020440000207C0B002067
:101B900048000020940B00204C000020C40B0020C3
:101BA0005C00002000EB4003FC4C04EB03131A80A4
:101BB000FB4A127800EB400304EB03139A70F94AD6
:101BC000127800EB400304EB0313DA7000210AE003
:101BD000F54A535C00EB4002F04C04EB0212121D7C
:101BE00053544A1CD1B200EB4002EC4B03EB0212FF
:101BF000D2788A42ECDCED4A32F8102000EB400348
:101C0000E64C04EB03139A81E54A137800EB40029B
:101C100004EB02129373E34A137800EB400204EBE7
:101C20000212D37300210BE0DF4A0832535C00EB51
:101C30004002DA4C04EB0212103253544A1CD1B267
:101C400000EB4002D54B03EB0212D27B8A42EBDC65
:101C5000D64A32F8102000EB4003D04C04EB0313BB
:101C60001A83CF4A137800EB400204EB02129376FA
:101C7000CC4A137800EB400204EB0212D376002129
:101C80000BE0C94A1032535C00EB4002C34C04EB3A
:101C900002121C3253544A1CD1B200EB4002BF4B1B
:101CA00003EB0212D27E8A42EBDCC04A32F81020EB
:101CB00000EB4003B94C04EB03139A84B84A137841
:101CC00000EB400204EB021282F82630B54A13788A
:101CD00000EB400204EB021282F8273000210BE0F7
:101CE000B14A1832535C00EB4002AC4C04EB0212D8
:101CF000283253544A1CD1B200EB4002A74B03EBED
:101D0000021292F827208A42EADCA84A32F8102010
:101D100000EB4003A64C24F83320A14A127800EBD4
:101D2000400304EBC3039A709E4A127800EB400311
:101D300004EBC303DA7000210AE09E4A535C00EB17
:101D400040029B4C04EBC202121D53544A1CD1B2F8
:101D500000EB4002964B03EBC202D2788A42ECDCE5
:101D6000924A32F8102000EB4003914C04EBC3037D
:101D70009A818B4A137800EB400204EBC202937302
:101D8000884A137800EB400204EBC202D3730021AF
:101D90000BE0884A0832535C00EB4002844C04EBB1
:101DA000C202103253544A1CD1B200EB4002804BA5
:101DB00003EBC202D27B8A42EBDC7C4A32F8102071
:101DC00000EB40037C4C24F83320754A127800EB7A
:101DD000400304EBC3039A70724A127800EB40038D
:101DE00004EBC303DA7000210AE0744A535C00EB91
:101DF0004002714C04EBC202121D53544A1CD1B272
:101E000000EB40026C4B03EBC202D2788A42ECDC5E
:101E1000664A32F8102000EB4003674C04EBC30322
:101E20009A815F4A137800EB400204EBC20293737D
:101E30005C4A137800EB400204EBC202D37300212A
:101E40000BE05E4A0832535C00EB40025A4C04EB54
:101E5000C202103253544A1CD1B200EB4002564B1E
:101E600003EBC202D27B8A42EBDC8022544B1A8005
:101E70004B4A12789A700022DA704C4A32F81020DD
:101E800000EB40034F4C24F82320454A127800EB26
:101E9000400304EB83039A70424A127800EB40033C
:101EA00004EB8303DA7000210AE0474A535C00EB3D
:101EB0004002444C04EB8202121D53544A1CD1B21E
:101EC00000EB40023F4B03EB8202D2788A42ECDC0B
:101ED00010BD70B50646012E02D13C4C254605E0EA
:101EE000022E02D13A4C254600E070BD294620461C
:101EF000FFF796F9FFF706FA00BFF6E770B506465A
:101F0000012E03D14FF4B464254606E0022E03D11E
:101F10004FF43464254600E070BD29462046FFF7A3
:101F20007FF9FFF7EFF900BFF6E770B5294C65427E
:101F300029462046FFF774F9FFF7E4F970BD70B544
:101F40004FF43474654229462046FFF769F9FFF7DC
:101F5000D9F970BD70B500F065FC002877D11E4836
:101F6000006808B9012000E000201B490860322009
:101F700001F068FB00F0CDFC06460B2E01D00C2EC4
:101F800067D1072000F0E8FCA0F18005082000F0F0
:101F9000E3FCC0F17F04224629461FE0F40B002039
:101FA00021010020200100206C0000201C010020E5
:101FB000540C00208C000020840C00209C00002089
:101FC000B40C00201C0B00201401002060FAFFFF5D
:101FD000C0F4FFFF30FDFFFFAC024042FCA00AF05E
:101FE000DBF8412D01DBFFF7AAFF15F1410F01DC02
:101FF000FFF79BFF14B90DB9FFF7A9F9412D28DAB6
:1020000015F1410F25DD002C0DDD0A2C04DD6E2CB1
:1020100002DC0120FFF772FF6E2C04DD802C02DC55
:102020000220FFF76BFF002C13DA604204B20A2C87
:1020300004DD6E2C02DC0120FFF74BFF6E2C08DD67
:10204000802C06DC0220FFF744FF02E0FFE7FFF7E9
:102050007EF970BD70B52DED048BB0EE408AF0EEC8
:10206000608A002400259FEDE10AB0EE409A9FEDC2
:10207000E00AB4EEC08AF1EE10FA06DC9FEDDC0A4D
:10208000F4EEC08AF1EE10FA03DD0120BDEC048B02
:1020900070BD9FEDD80AB4EEC08AF1EE10FA06DBEF
:1020A0009FEDD20AB4EEC08AF1EE10FA0DD99FED81
:1020B000D10AF4EEC08AF1EE10FA09DB9FEDCB0AEB
:1020C000F4EEC08AF1EE10FA02D8FFF740F915E0FD
:1020D0009FEDC90A28EE000ABDEEC00A10EE104AB4
:1020E0009FEDC50A28EE800ABDEEC00A10EE105A18
:1020F00029462046FFF794F8FFF704F90020C5E7CA
:1021000010B50024022001F09DFABC49BC48FEF73E
:10211000C0FD00E0641CBB48008840F28151884249
:1021200003D06FF07F408442F4D3B648008840F279
:102130008151884224D1B3480079B3490978884253
:102140001ED1B0484079B0494978884218D1AD488D
:102150008079AD498978884212D1AA48C079AA49C4
:10216000C97888420CD1A748007AA8490870A548C8
:10217000407A4870A348807A8870A248C07AC870B4
:10218000022001F05FFA00249C490C319C48FEF7C4
:1021900080FD00E0641C9B48008840F28251884228
:1021A00003D06FF07F408442F4D39648008840F219
:1021B0008251884224D19348007993490978884212
:1021C0001ED19048407990494978884218D18D486D
:1021D00080798D498978884212D18A48C0798A49A4
:1021E000C97888420CD18748007A894908708548A7
:1021F000407A48708348807A88708248C07AC87074
:102200000120FEF736FE10BD7CB5002681497C48D2
:10221000FEF73FFD01E0701C86B27A48008840F26C
:102220008151884203D04FF6FF708642F3DB754838
:10223000007979490978884256D1724840797649BF
:102240004978884250D16F488079734989788842AB
:102250004AD16C48C0797049C978884244D16948EC
:10226000407A0012F0B16748017A407AC0EB002052
:1022700008444FF6FF71081A85B200EE105AB8EE06
:10228000400ADFED660A20EE200ADFED650A80EEE7
:10229000201A8DED001A9DED000AB1EE400A8DED79
:1022A000000A14E05748017A407AC0EB0020084445
:1022B00085B200EE105AB8EE400ADFED580A20EE63
:1022C000200ADFED570A80EE201A8DED001A9DF8E6
:1022D0000000544908709DF8010048709DF8020004
:1022E00088709DF80300C870022001F0ABF9002649
:1022F00048490C314248FEF7CCFC01E0701C86B224
:102300004048008840F28251884203D04FF6FF7067
:102310008642F3DB3B4800793F490978884256D131
:10232000384840793C494978884250D135488079CD
:102330003949897888424AD13248C0793649C978C2
:10234000884244D12F48407A0012F0B12D48017ADA
:10235000407AC0EB002008444FF6FF71081A84B29F
:1023600000EE104AB8EE400ADFED2C0A20EE200AFB
:10237000DFED2B0A80EE201A8DED011A9DED010A8A
:10238000B1EE400A8DED010A14E01E48017A407A50
:10239000C0EB0020084484B200EE104AB8EE400AB8
:1023A000DFED1E0A20EE200ADFED1D0A80EE201A66
:1023B0008DED011A9DF804001B4908709DF8050079
:1023C00048709DF8060088709DF80700C8707CBDB5
:1023D0000D0A7377657276653A20256420737065FF
:1023E00065643A202564200D0A00000017B7D13833
:1023F0000000484217B7D1B800007043C00C00205D
:1024000000640040380A0020F4000020220100206F
:1024100026010020D80C0020FC000020004044448D
:102420000014CD4A2A0100202E01002010B50024FE
:10243000BB49BC48FEF72DFC01E0601CC4B2BA48A1
:10244000008840F28151884203D04FF6FF708442E9
:10245000F3DBB5480079B5490978884228D1B248FC
:102460004079B2494978884222D1AF488079AF4952
:10247000897888421CD1AC48C079AC49C978884277
:1024800016D1A948407A001258B1A748407AC0F145
:10249000FF00A7490870A448007AC0F1FF00487007
:1024A00006E0A148407AA24908709F48007A487027
:1024B000022001F0C7F8002499490C319948FEF731
:1024C000E8FB01E0601CC4B29748008840F28251EA
:1024D000884203D04FF6FF708442F3DB92480079C4
:1024E00092490978884218D18F4840798F494978B4
:1024F000884212D18C4880798C49897888420CD1E5
:102500008948C0798949C978884206D18648407A85
:10251000884908708448007A487010BD70B500245E
:10252000002585497F48FEF7B4FB01E0601C84B2BA
:102530007D48008840F28151884203D04FF6FF70F9
:102540008442F3DB784800797C490978884221D1BC
:10255000754840797949497888421BD17248807919
:1025600076498978884215D16F48C0797349C9780E
:1025700088420FD16C48407A00F0080050B1FEF755
:10258000E6FE01206E490870002048700120887026
:10259000681CC5B20024022001F054F866490C31D1
:1025A0006048FEF776FB01E0601C84B25E4800885C
:1025B00040F28251884203D04FF6FF708442F3DB31
:1025C000594800795D490978884221D156484079B7
:1025D0005A49497888421BD15348807957498978AC
:1025E000884215D15048C0795449C97888420FD1E2
:1025F0004D48407A00F0080050B1FEF7A8FE0120D7
:102600004F49087008468078801C8870681CC5B2E5
:102610001DB1FF20FEF72DFC002549480021016077
:10262000818070BD012803D10121464A116002E07A
:102630000021444A11607047002870D001280DD154
:102640000121414A11600021404AC2F898123E4AD5
:10265000121F11603D4AC2F8941260E002280DD1A9
:102660000121394A0C3211600021384AC2F8941213
:10267000354A1160354AC2F8941250E004280DD151
:102680000121314A121F11600021304AC2F8941210
:102690002D4A11602D4AC2F8981240E008280ED148
:1026A0000121294A083211600021284AC2F88C12FF
:1026B000254A0C321160254AC2F888122FE00928F9
:1026C0000ED10121204A08321160204AC2F88C1232
:1026D00000211D4A0C3211601C4AC2F888121EE00B
:1026E0000A280ED10121184A08321160174AC2F88F
:1026F00098120021144A08321160144AC2F88C1250
:102700000DE00021104A08321160104AC2F88C1204
:102710000D4A0C32116001210C4AC2F88812704730
:10272000F00C002000640040380A00200401002062
:102730003201002034010020080D00200C0100208F
:102740003C010020840242428C024342000043428A
:102750001CB50121022001F0F1FB4FF46040009014
:1027600001208DF8040000208DF8060002208DF86D
:1027700005008DF807006946F54801F041F94FF46E
:102780008050009000208DF8040002208DF8050094
:102790008DF807006946EE4801F032F94FF47041B8
:1027A000EB4801F0ABF91CBD38B5044601200090A0
:1027B0000020E8494870012000902EE0BDF800009C
:1027C000204018B10120E449086002E00020E249FD
:1027D00008600120E04908310860322000F0EAFE7C
:1027E0000020DE49C1F8BC02322000F0E3FE0120E7
:1027F000DA49C1F8BC020846D0F8300230B1D548F9
:102800004078BDF800100843D2494870BDF8000078
:102810004FF6FF7101EA40000090BDF80000FF286C
:10282000CCDD38BD10B50020CB49091D0860CC496E
:102830000878FFF7B9FFCA494878FFF7B5FF0120CC
:10284000C649C1F8B802C3484078732801D10020B6
:1028500010BD0120FCE71CB5002001900120009074
:102860000020BD49091D0860BD490878FFF79CFF9D
:10287000BB494878FFF798FF0220019036E001201D
:10288000009027E00120B44908310860322000F0B0
:1028900091FE0020B149C1F8BC02322000F08AFE4E
:1028A0000120AE49C1F8BC020846D0F8300250B150
:1028B000A8489DF80410405CBDF800100843A549E5
:1028C0009DF804208854BDF800004FF6FF7101EA1E
:1028D00040000090BDF80000FF28D3DD322000F05A
:1028E00069FE9DF80400401CC0B201909DF80400F0
:1028F0000928C4DB01209849091D08601CBD00207F
:1029000004E00021934A1154411CC8B20928F8DBA5
:10291000704710B5FFF7F3FFFFF79DFF8D48C078B4
:102920008C49097940EA01208E49088000240FE093
:102930008D4810F81400401E012101FA00F0894969
:102940000988084010B9601CC0B210BD601CC4B238
:10295000102CEDDB0020F8E701467E48405C704714
:1029600070B505460C4600207B49091D0860102003
:1029700000F020FE0120FFF717FF4220FFF714FFB1
:102980000020FFF711FF2846FFF70EFF2046FFF754
:102990000BFF0020FFF708FF0020FFF705FF0020D6
:1029A000FFF702FF0020FFF7FFFE01206B49C1F88F
:1029B000B802102000F0FEFD70BD10B50020664981
:1029C000091D0860102000F0F5FD0120FFF7ECFE66
:1029D0004220FFF7E9FE0020FFF7E6FE0020FFF7A8
:1029E000E3FE0020FFF7E0FE01205C49C1F8B802D9
:1029F000102000F0DFFD10BD10B500205649091D64
:102A00000860102000F0D6FD0120FFF7CDFE432026
:102A1000FFF7CAFE0020FFF7C7FE0120FFF7C4FE44
:102A20000020FFF7C1FE0020FFF7BEFE0020FFF7E9
:102A3000BBFE0020FFF7B8FE0020FFF7B5FE012027
:102A40004649C1F8B802102000F0B4FD10BD10B521
:102A500000204149091D08600120FFF7A5FE442020
:102A6000FFF7A2FE0020FFF79FFE0020FFF79CFE6D
:102A7000EE20FFF799FE0020FFF796FE0020FFF7FB
:102A800093FE0020FFF790FE0020FFF78DFE01204F
:102A90003249C1F8B802102000F08CFD10BD10B50D
:102AA00000202D49091D0860102000F083FD012041
:102AB000FFF77AFE4D20FFF777FE0020FFF774FE48
:102AC0000020FFF771FE0120FFF76EFE0120234971
:102AD000C1F8B802102000F06DFD10BD10B5002047
:102AE0001D49091D0860102000F064FD0120FFF75A
:102AF0005BFE4320FFF758FE0020FFF755FE002045
:102B0000FFF752FE5A20FFF74FFE5A20FFF74CFE08
:102B10005A20FFF749FE5A20FFF746FE5A20FFF7DA
:102B200043FE01200D49C1F8B802102000F042FD1B
:102B300010BD10B5FFF741FFFFF73FFFFFF73DFF67
:102B4000FFF75AFFFFF783FFFFF7C8FF10BD000034
:102B500000040240200D0020B48240420080404228
:102B60004E0100204C0100205001002010B5202112
:102B7000584801F001FD28B3564801F051FCC4B299
:102B80005548008800F40040E0B953480088C82840
:102B900012DA0021514802F03DFB4F48008818B975
:102BA00001214E4802F076FB4B490888411C4A4AF5
:102BB00011804B490C5405E04748008840F4004020
:102BC0004549088010BD10B588B00446414801F061
:102BD00009FB0121022001F0B1F90121880401F073
:102BE000F6F94FF44060059002208DF818008DF83A
:102BF000190000208DF81A0001208DF81B0005A98E
:102C0000384800F0FDFE07220B21364800F083FF14
:102C100007220A21334800F07EFF01940020ADF81E
:102C20000800ADF80A00ADF80C00ADF810000C205B
:102C3000ADF80E0001A9274801F03BFB012240F24C
:102C40002551244801F073FC0121224801F0B9FB11
:102C500027208DF81C0002208DF81D0003208DF820
:102C60001E0001208DF81F0007A800F0D8FD42F2D9
:102C7000CF01312000F050F80021184802F00AFB83
:102C800000201549088008B010BD0FB438B505A85C
:102C900000901548009A049909F06CFA0020009001
:102CA000114809F0B1FB85B200240DE000BF4021BE
:102CB000084801F061FC0028F9D00B48015D054887
:102CC00001F0AAFB601C84B2AC42EFDB38BC5DF8BB
:102CD00014FB000000480040700100200014004078
:102CE000C00E002000040240300D002010B501216C
:102CF0005D4802F0FEFE01280DD15C48008840F4DA
:102D000000405A4908800121574802F003FF002182
:102D1000554802F0BFFA10BD7FB505460C460121AB
:102D2000202001F054F90295ADF804400020ADF8E0
:102D30000600ADF80C0001A94B4802F022FA01226E
:102D40001146494802F0BEFE0121474802F0A2FAAE
:102D500037208DF8000000208DF8010001208DF84B
:102D600002008DF80300684600F059FD7FBD10B5E4
:102D700001213F4802F0BDFE01280DD13B480088EB
:102D800040F40040394908800121394802F0C2FE70
:102D90000021374802F07EFA10BD7FB505460C468B
:102DA0000121082001F013F90295ADF8044000203C
:102DB000ADF80600ADF80C0001A92D4802F0E1F9CC
:102DC000012211462A4802F07DFE0121284802F026
:102DD00061FA32208DF8000000208DF801000120FA
:102DE0008DF802008DF80300684600F018FD7FBDE5
:102DF00010B501211F4802F07CFE012808D11E48B1
:102E00000088401C1C49088001211A4802F082FEFB
:102E100010BD7FB505460C460121022001F0D7F810
:102E20000295ADF804400020ADF80600ADF80C00A6
:102E300001A9104802F0A5F9012211460D4802F03F
:102E400041FE01210B4802F025FA1D208DF80000FB
:102E500000208DF8010001208DF802008DF803009C
:102E6000684600F0DCFC7FBD0014004088010020B3
:102E7000000C0040000400407401002010B540F236
:102E80002551AA4801F08EFB80B1A84801F0C8FA8C
:102E9000C4B2A7480078402808DAA648A4490978AF
:102EA0004454A3480078401CA149087010BD10B5D7
:102EB00088B0044601210C2001F040F80121C8042B
:102EC00001F085F808220A219B4800F024FE082220
:102ED0000B21994800F01FFE4FF44060069002203D
:102EE0008DF81C0003208DF81D0000208DF81E00B9
:102EF00001208DF81F0006A98F4800F081FD4FF4D6
:102F00008050069001208DF81C0003208DF81D00D4
:102F100000208DF81E0001208DF81F0006A98648AC
:102F200000F06EFD012006908DF81C0003208DF846
:102F30001D0000208DF81E0001208DF81F0006A93D
:102F40007E4800F05DFD02940020ADF80C00ADF865
:102F50000E00ADF81000ADF814000C20ADF8120012
:102F600002A9724801F0A5F90121704801F029FA7F
:102F700040216E4801F00DFB012240F225516B48C3
:102F800001F0D5FA34208DF8040003208DF80500F7
:102F90008DF8060001208DF8070001A800F03FFC25
:102FA0000020674908606749C1F8800208B010BD79
:102FB00010B588B004460121084600F0BFFF01218A
:102FC000480401F004F8072202215F4800F0A3FD45
:102FD000072203215C4800F09EFD0C200690022091
:102FE0008DF81C0003208DF81D0000208DF81E00B8
:102FF00001208DF81F0006A9534800F001FD4FF491
:103000008070069001208DF81C0003208DF81D00B3
:1030100000208DF81E0001208DF81F0006A94B48E6
:1030200000F0EEFC02940020ADF80C00ADF80E00AC
:10303000ADF81000ADF814000C20ADF8120002A994
:10304000434801F036F90121414801F0BAF9402125
:103050003F4801F09EFA012240F225513C4801F020
:1030600066FA26208DF8040003208DF805008DF8FF
:10307000060001208DF8070001A800F0D0FB002019
:103080003449086008B010BD70B505460E460120F1
:103090002B4908602B49C1F88002052000F0D2FAC4
:1030A00000240CE000BF4021204801F065FA002810
:1030B000F9D0295D1D4801F0AFF9601CC4B2B442DB
:1030C000F0DB00BF4021194801F056FA0028F9D082
:1030D0000020174908701A4908601A49C1F880028F
:1030E000052000F0AFFA70BD2DE9F04107460D460E
:1030F0000F4806780024002028700A2000F0A2FA69
:103100000B48007886420FD176B100BF04E0094831
:10311000005D3855601CC4B2B442F8DB0448007846
:103120002870002002490870BDE8F081004C004082
:1031300076010020880F002000080240000C0240A9
:10314000B0024142008041420000024000180240AB
:1031500000440040A002434242798A72437A827A54
:1031600003EB02224A80C37B027C03EB02220A802B
:10317000C37C027D03EB02228A81437D827D03EBC7
:1031800002220A81C37D027E03EB0222CA800A89E1
:1031900064235A43CB8892FBF3F200EE102AB8EE78
:1031A000C00ABCEEC00A10EE102A0A71704710B5B2
:1031B0008AB004462421684609F0ACF90621084883
:1031C000FFF762FF322000F03DFA09A96846FFF7D9
:1031D0008BFF21466846FFF7BFFF0AB010BD000015
:1031E0000EE6000800B58DB00121022000F0A6FE19
:1031F0000121042000F0A2FE0121080200F0F8FEE7
:1032000003200B908DF8300002208DF833000BA9BD
:10321000B84800F0F5FB30200B9003208DF830000B
:1032200000208DF833000BA9B34800F0E9FB012121
:10323000080200F032FF00214FF4807000F02DFFF3
:10324000002007900A9009904FF48030089007A85A
:1032500002F076FD002001908DF808008DF809003D
:103260000390059001208DF8180001A9A34802F0F1
:1032700038FD0121A14802F07AFD0DB000BD10B566
:1032800004460723012221469C4802F0B0FD9B48DA
:1032900002F009FE00BF0221984802F025FF002835
:1032A000F9D0964802F03BFE10BD70B502460023EF
:1032B00018E0002011E052F82060451C52F825501B
:1032C000AE4209D952F82040451C52F8255042F828
:1032D0002050451C42F82540401C4D1EED1A8542E9
:1032E000E9DC5B1C4D1E9D42E3DC70BD70B594B003
:1032F00006460C46002506E03046FFF7C0FF4DF8B5
:103300002500681CC5B2A542F6DB214604EBD1704E
:1033100040103DF8200080B214B070BD30B52DEDE6
:10332000068B83B005460020019002900121082001
:10333000FFF7DCFFADF8040001210920FFF7D6FFFD
:10334000ADF8060001210E20FFF7D0FFADF8080010
:1033500001210F20FFF7CAFFADF80A000024C1E0E9
:1033600001A931F814000AF0DCFE41EC1A0B9FEDC4
:10337000640B53EC102B0AF023FF41EC180B9FED6C
:10338000620B53EC102B51EC180B0AF0DDFE06D249
:103390009FED5F0BB0EE409AF0EE609A92E09FEDE9
:1033A0005A0B53EC102B51EC180B0BF007F81BD8F1
:1033B0009FED590B53EC102B51EC180B0AF0C4FE87
:1033C00012D253EC182B9FED560B51EC100B0AF058
:1033D000F7FE41EC1A0B9FED540B53EC102B0AF047
:1033E00067FC41EC190B6DE09FED4B0B53EC102B80
:1033F00051EC180B0AF0E2FF1BD89FED4D0B53EC7C
:10340000102B51EC180B0AF09FFE12D253EC182B24
:103410009FED490B51EC100B0AF0D2FE41EC1A0B58
:103420009FED470B53EC102B0AF0FEFF41EC190BFC
:1034300048E09FED3F0B53EC102B51EC180B0AF0BA
:10344000BDFF1BD89FED400B53EC102B51EC180B1C
:103450000AF07AFE12D253EC182B9FED3D0B51EC83
:10346000100B0AF0ADFE41EC1A0B9FED3B0B53EC39
:10347000102B0AF0D9FF41EC190B23E09FED320B22
:1034800053EC102B51EC180B0AF098FF1AD89FED53
:10349000340B53EC102B51EC180B0AF055FE11D8DD
:1034A00053EC182B9FED300B51EC100B0AF088FEFB
:1034B00041EC1A0B9FED2E0B53EC102B0AF0B4FFCE
:1034C00041EC190B53EC192B9FED2B0B51EC100B0E
:1034D0000AF0A2FC41EC1A0B0AF0F6FD25F81400E4
:1034E000601CC4B2042CFFF63BAF03B0BDEC068BEE
:1034F00030BD0000000402400008024000200140EE
:103500006666666666664A3FF4FDD478E926D93F6A
:103510002F2BD0CB814E7B3F666666666666F83F92
:1035200082E2C798BB96903F613255302AA9333F5B
:10353000EC51B81E85EBFF3F728A8EE4F21F923F7A
:103540002D431CEBE2362A3F33333333333304400D
:103550003255302AA913A03F2575029A081B9E3FB9
:103560006666666666660A409C33A2B437F8B23F68
:10357000F0A7C64B3789C13F000000000000F03FB4
:1035800010B504466FF0040000F096F9E11704EB63
:103590005171C1F3C701394A11701046007800EB30
:1035A0004001C1EBC0104FF6FF7101EAC000344981
:1035B000088010BD0146314A12784A434FF0E0239B
:1035C0005A6100229A611A46126942F001021A6198
:1035D00000BF4FF0E022106900F001021AB100F4C0
:1035E0008032002AF5D04FF0E022126922F0010269
:1035F0004FF0E0231A6100229A6170470146204A89
:1036000012884A434FF0E0235A6100229A611A4619
:10361000126942F001021A6100BF4FF0E022106906
:1036200000F001021AB100F48032002AF5D04FF008
:10363000E022126922F001024FF0E0231A61002219
:103640009A61704770B504464FF4077094FBF0F030
:10365000C6B24FF4077094FBF0F100FB114085B245
:1036600005E04FF40770FFF7C9FF701EC6B2002EC9
:10367000F7D115B12846FFF7C1FF70BD7E010020CC
:103680008001002000BF704700BF4C4A128802F042
:103690004002002AF9D0C2B2484B1B1D1A80704765
:1036A00010B588B004460121084600F047FC01210E
:1036B000102000F09DFC07220921414800F02BFA60
:1036C00007220A213E4800F026FA4FF4C060069017
:1036D00002208DF81C008DF81D0000208DF81E00C2
:1036E00001208DF81F0006A9354800F089F90294E1
:1036F0000020ADF80C00ADF80E00ADF81000ADF8EC
:1037000014000C20ADF8120002A92E4800F0D1FDE3
:1037100001212C4800F055FE40212A4800F039FFD5
:10372000012240F22551274800F001FF25208DF8A5
:10373000040003208DF805008DF8060001208DF8A7
:10374000070001A800F06BF842F2CF013120FFF72B
:10375000E3FA00211C4801F09DFD08B010BD10B532
:103760002021184800F008FFF8B1164800F058FE74
:10377000C4B21648008800F40040B0B9134800886D
:10378000C82813DA0021104801F044FD0F480088D2
:1037900018B901210C4801F07DFD0C480188008812
:1037A000401C0A4A10800A48445405E00748008833
:1037B00040F400400549088010BD0000004800406A
:1037C0000000024000100140001400408801002069
:1037D000FA0F00200948804709480047FEE7FEE746
:1037E000FEE7FEE7FEE7FEE7FEE7FEE7FEE7FEE7B1
:1037F00004480549054A064B704700007D0800084B
:103800008901000830170020301D002030190020E9
:103810003019002032490143324A1160704770B5B7
:10382000002100230F22C4781CB32E4C246804F41A
:10383000E064C4F5E064C4F30721C1F10404E3B219
:103840000A4144789C40E1B28478144021430C073B
:10385000210E254C05786155047804F01F050124DC
:10386000AC4005786D11AD0005F1E025C5F80041CB
:1038700009E0047804F01F050124AC401B4D0678D4
:10388000761145F8264070BD194A0A400243154B8F
:103890001B1F1A60704739B1124A121D1268024389
:1038A000104B1B1D1A6006E00E4A121D126882435F
:1038B0000C4B1B1D1A607047042808D14FF0E02103
:1038C000096941F004014FF0E022116107E04FF077
:1038D000E021096921F004014FF0E02211617047F5
:1038E0000000FA050CED00E000E400E080E100E0FB
:1038F00080FFFF1F10B504469848844208D101217B
:10390000084600F086FB0021012000F082FB76E0F3
:103910009348844208D10121022000F07AFB002163
:10392000022000F076FB6AE08E48844208D1012133
:10393000042000F06EFB0021042000F06AFB5EE032
:103940008948844208D10121082000F062FB00214F
:10395000082000F05EFB52E08448844208D1012137
:10396000102000F056FB0021102000F052FB46E032
:103970007F48844208D10121202000F04AFB002129
:10398000202000F046FB3AE07A48844208D1012129
:10399000402000F03EFB0021402000F03AFB2EE0EA
:1039A0007548844208D10121802000F032FB0021BB
:1039B000802000F02EFB22E07048844208D10121D3
:1039C000801500F026FB0021A01500F022FB16E078
:1039D0006B48844208D10121401500F01AFB0021F8
:1039E000601500F016FB0AE06648844207D1012109
:1039F000001500F00EFB0021201500F00AFB10BDA1
:103A0000F0B50A4600210023002400BF3DE0012557
:103A100005FA01F3156805EA03049C4234D10568F0
:103A20004F000326BE40B543056015794E00B540F2
:103A30000668354305601579012D02D01579022DF0
:103A400016D185684F000326BE40B5438560557981
:103A50004E00B540866835438560456801268E4036
:103A6000B5434560456896798E40B6B235434560AA
:103A7000C5684F000326BE40B543C560D5794E00EA
:103A8000B540C6683543C560491C1029BFD3F0BD99
:103A90004FF6FF7101600021017141718171C171A7
:103AA000704708B54FF480320092009A0A430092A2
:103AB000009AC261C161009AC261C2690092C26982
:103AC000009208BD0246002013690B400BB1012093
:103AD00000E0002070470146086980B27047024646
:103AE000002053690B400BB1012000E0002070471B
:103AF0000146486980B2704701837047418370472F
:103B00000AB1018300E04183704741617047426917
:103B10004A4042617047F0B5002300244D07ED0E86
:103B200002FA05F3CE1000F1200555F826504E0795
:103B3000F70E0F26BE40B543CF1000F1200646F821
:103B40002750CE1000F1200555F8265045EA030411
:103B5000CE1000F1200545F82640F0BD00000240DF
:103B60000004024000080240000C02400010024025
:103B70000014024000180240001C024000200240D5
:103B80000024024000280240F948006840F001008B
:103B9000F74908600020F64908310860F4480068D9
:103BA000F4490840F2490860F348091D0860F348E9
:103BB000EF4984310860F0481038091D0860EC486E
:103BC000006820F48020EA4908600020E8490C31B0
:103BD0000860E7498C31086070470021E44A921C74
:103BE000117011460870704710B50146002200237D
:103BF00000204A11012A02D1DD4C236808E0022A84
:103C000003D1DB4C7034236802E0D94C7434236850
:103C100001F01F02012494401C400CB1012000E07F
:103C2000002010BD38B5002000900024002500BF02
:103C30003120FFF7D9FF05460098401C00900098FE
:103C4000B0F5A04F01D0002DF2D03120FFF7CCFF0E
:103C500008B1012400E00024204638BD01460020C0
:103C6000C34A106820F0F80040EAC10010607047B5
:103C7000C349086070470021BD4A7032117011704D
:103C8000012802D004280AD104E00121B84A703288
:103C9000117005E00521B64A7032117000E000BFD6
:103CA00000BF7047B7490860704770B5049C41EA8F
:103CB00082150126C6EB530645EA0645054345EA4B
:103CC0000465AB4E361D356070BDAD490866704762
:103CD000820142EA0172A64B84331A607047A849F8
:103CE0008866704710B5830143EA016343EA0273B3
:103CF0009F4C8834236010BDA14908677047A049D4
:103D0000C864704702460020994B0833186820F0B9
:103D1000EC6042EA01031843954B08331860704782
:103D200002460020924B0833186820F0784042EA9F
:103D3000010318438E4B083318607047014600207A
:103D40008B4A0832106820F0030008431060704767
:103D500087480830006800F00C00704701460020DA
:103D6000834A0832106820F0F00008431060704762
:103D7000014600207E4A0832106820F4E0500843D3
:103D80001060704701460020794A0832106820F41C
:103D9000604040EAC10010607047F0B50021002289
:103DA0000024022500260223714F08373F6807F0E0
:103DB0000C0121B1042905D0082937D105E0724F43
:103DC000076036E0714F076033E0694F3F1D3F6881
:103DD000C7F38056664F3F1D3F6807F03F036EB143
:103DE0006A4FB7FBF3F7DFF888C10CF1040CDCF87D
:103DF00000C0CCF3881C07FB0CF40CE0624FB7FB4F
:103E0000F3F7DFF86CC10CF1040CDCF800C0CCF364
:103E1000881C07FB0CF4564F3F1D3F68C7F3014752
:103E20007F1C7D00B4FBF5F7076002E0564F07608A
:103E300000BF00BF4E4F08373F6807F0F001090987
:103E4000534F7A5C0768D7404760494F08373F684F
:103E500007F4E051890A4E4F7A5C4768D740876083
:103E6000434F08373F6807F46041490B484F7A5C7D
:103E70004768D740C760F0BD002100F44072B2F53A
:103E8000407F0AD13A4A0832116821F4F811414AB8
:103E900002401143364A08321160354A70321268C6
:103EA000C0F30B031A43324B70331A607047354925
:103EB00044390860704733494039086070473649D3
:103EC0000860704701460020294A8C32106820F0B3
:103ED0001F004A1E1043264A8C321060704701466C
:103EE0000020234A8C32106820F4F8504A1E40EA21
:103EF00002201F4A8C3210607047014600201C4A85
:103F00008C32106820F4401008431060704701465E
:103F10000020174A8C32106820F4400008431060DB
:103F2000704701460020124A8C32106820F440305D
:103F300008431060704719490860704739B10C4A4E
:103F40003032126802430A4B30331A6006E0084AE6
:103F5000303212688243064B30331A607047F9B131
:103F6000034A343212680243014B34331A601CE0B6
:103F700000380240FFFFF6EA103000240030002035
:103F800000004742800E47420024F40000127A00ED
:103F90008A010020FFFCFF0F5C014742E01147420D
:103FA0008F4A126882438E4B1A60704739B18C4A2F
:103FB000121D126802438A4B1B1D1A6006E0884AD4
:103FC000121D12688243864B1B1D1A60704739B15F
:103FD000834A0C3212680243814B0C331A6006E0AC
:103FE0007F4A0C32126882437D4B0C331A60704753
:103FF00039B17B4A103212680243794B10331A6090
:1040000006E0774A103212688243754B10331A600B
:10401000704739B1724A243A12680243704B243B0C
:104020001A6006E06E4A243A126882436C4B243BC5
:104030001A60704739B16A4A203A12680243684BE5
:10404000203B1A6006E0664A203A12688243644BBD
:10405000203B1A60704739B1614A1C3A126802432A
:104060005F4B1C3B1A6006E05D4A1C3A12688243B3
:104070005B4B1C3B1A60704739B1594A143A1268BD
:104080000243574B143B1A6006E0554A143A126833
:104090008243534B143B1A60704739B1504A103A6F
:1040A000126802434E4B103B1A6006E04C4A103A2D
:1040B000126882434A4B103B1A60704739B1484A34
:1040C0001C3212680243464B1C331A6006E0444A15
:1040D0001C3212688243424B1C331A60704739B15C
:1040E0003F4A2032126802433D4B20331A6006E0FB
:1040F0003B4A203212688243394B20331A607047A2
:1041000039B1374A243212680243354B24331A60DE
:1041100006E0334A243212688243314B24331A605A
:10412000704739B12E4A2C32126802432C4B2C3383
:104130001A6006E02A4A2C3212688243284B2C333C
:104140001A60704739B1264A303212680243244B54
:1041500030331A6006E0224A303212688243204B24
:1041600030331A607047012808D11D493C31096875
:1041700041F008011A4A3C32116007E018493C310D
:10418000096821F00801164A3C321160704739B1C4
:10419000134A273A12780243114B273B1A7006E064
:1041A0000F4A273A127882430D4B273B1A7070470B
:1041B0000B484030006840F0807009494031086089
:1041C000704701460020064A283A12680A400AB1A0
:1041D000012000E00020704701492639087070472F
:1041E0003438024010B50446FA48844208D101210F
:1041F0001020FFF752FF00211020FFF74EFF57E07D
:10420000F548844209D101214804FFF735FF002118
:104210004FF40030FFF730FF4AE0F048844209D104
:1042200001218804FFF728FF00214FF48020FFF7C9
:1042300023FF3DE0EA48844209D10121C804FFF789
:104240001BFF00214FF40020FFF716FF30E0E54888
:10425000844209D101210805FFF70EFF00214FF428
:104260008010FFF709FF23E0DF48844208D10121D5
:104270002020FFF712FF00212020FFF70EFF17E09C
:10428000DA48844209D101218807FFF7F5FE0021B1
:104290004FF08040FFF7F0FE0AE0D548844207D196
:1042A00001214005FFF7E8FE00216005FFF7E4FE6D
:1042B00010BD2DE9FF4705460E460024A14600BF6C
:1042C000A046B08900B100BF2C8A24F44054F08885
:1042D00004432C82AC8941F20C608443B08831895C
:1042E0000843718908430443AC81AC8A24F44074C8
:1042F000B0890443AC826846FFF74FFDB54885425C
:1043000002D0B948854202D1DDF80C9001E0DDF819
:104310000890A88900F4004040B109EBC90000EB07
:10432000091031684900B0FBF1F707E009EBC9005B
:1043300000EB091031688900B0FBF1F76420B7FB8E
:10434000F0F004012009642101FB1078A88900F431
:10435000004040B1322000EBC800B0FBF1F000F0AB
:104360000700044308E0322000EB08106421B0FB92
:10437000F1F000F00F0004432C81BDE8FF874FF4FB
:104380001651016000218180C18001810C21418191
:1043900000218181704710B502460020108A20F468
:1043A00070600B884C8823438C882343CC8823433C
:1043B0001843108210BD0021018041808180C1809E
:1043C000704721B1828942F40052828104E08289DF
:1043D0004DF6FF731A4082817047028B02F47F42D0
:1043E0000283028B0A430283704721B1828942F41F
:1043F0000042828103E08289C2F30E02828170470B
:1044000021B1828A42F40062828204E0828A4FF201
:10441000FF731A4082827047C1F30802828070479E
:1044200001468888C0F308007047028A4FF6F0738F
:104430001A400282028A0A430282704721B18289AD
:1044400042F00202828104E082894FF6FD731A4035
:104450008281704782894FF2FF731A40828182897C
:104460000A4382817047028A4FF6DF731A40028244
:10447000028A0A430282704721B1028A42F48042D2
:10448000028204E0028A4BF6FF731A4002827047F0
:10449000818941F001018181704721B1828A42F016
:1044A0000802828204E0828A4FF6F7731A40828201
:1044B0007047028BD2B20283028B42EA012202834E
:1044C000704721B1828A42F02002828204E0828A0F
:1044D0004FF6DF731A408282704721B1828A42F020
:1044E0001002828204E0828A4FF6EF731A408282C1
:1044F0007047828A4FF6FB731A408282828A0A438F
:104500008282704721B1828A42F00202828204E0F4
:10451000828A4FF6FD731A40828270471AB1838AED
:104520000B43838202E0838A8B4383827047F0B51A
:104530000346002400260025002040F66A17B942F1
:1045400000D100BF1846C1F3421401F01F06012735
:1045500007FA06F5012C01D10C3004E0022C01D140
:10456000103000E014301AB107682F43076002E0F2
:104570000768AF430760F0BD02460020B1F5007F39
:1045800000D100BF13880B400BB1012000E00020D8
:10459000704701F40072B2F5007F00D100BFCA433A
:1045A0000280704770B502460024002300250020D9
:1045B00040F66A16B14200D100BFC1F3421501F0C6
:1045C0001F03012606FA03F3012D13D19689334008
:1045D00017E0000000100140004400400048004087
:1045E000004C0040005000400014014000780040A2
:1045F000007C0040022D02D1168A334001E0968AE9
:1046000033400C12012606FA04F41688344013B124
:104610000CB1012000E0002070BD10B50022002385
:1046200040F66A14A14200D100BF0A12012494404E
:10463000A3B2DC43048010BD10B50446FE4884429A
:1046400009D101214806FFF717FD00214FF0007046
:10465000FFF712FD08E001218806FFF70DFD00219C
:104660004FF08060FFF708FD10BD30B50246002016
:104670000023146824F002041460146844F0010458
:10468000146000E05B1C546804F001041CB94FF690
:10469000FF74A342F6D1546804F001040CB9002061
:1046A0006CE08C79012C04D1146844F0800414600F
:1046B00003E0146824F080041460CC79012C04D148
:1046C000146844F04004146003E0146824F04004CB
:1046D00014600C7A012C04D1146844F02004146096
:1046E00003E0146824F0200414604C7A012C04D1F7
:1046F000146844F01004146003E0146824F01004FB
:1047000014608C7A012C04D1146844F008041460FD
:1047100003E0146824F008041460CC7A012C04D15E
:10472000146844F00404146003E0146824F00404E2
:1047300014608C78A407CD7844EA05640D7944EAC6
:1047400005444D7944EA05540D886D1E2C43D4610F
:10475000146824F001041460002300E05B1C54681A
:1047600004F001041CB14FF6FF74A342F6D1546863
:1047700004F001040CB1002000E0012030BD10B5B0
:104780000021837A012202FA03F1AC4A126842F056
:104790000102AA4B1A60A94A1C3212688A43A74B2D
:1047A0001C331A60027BCAB9A44A0C3212688A43CD
:1047B000A24B0C331A604288C38842EA03439F4AE3
:1047C0004032847A42F834300288838842EA0343D4
:1047D0009A4A4032847A02EBC4025360027B012A77
:1047E00019D1964A0C3212680A43944B0C331A6062
:1047F0004288038842EA0343904A4032847A42F86E
:104800003430C288838842EA03438C4A4032847A37
:1048100002EBC4025360C27A3AB9884A121D126888
:104820008A43864B1B1D1A6006E0844A121D1268DB
:104830000A43824B1B1D1A60028932B97F4A143227
:1048400012688A437D4B14331A600289012A06D10B
:104850007A4A143212680A43784B14331A60427B46
:10486000012A06D1754A1C3212680A43734B1C3365
:104870001A60724A126822F00102704B1A6010BD71
:1048800000218171C171017241728172C1728170A6
:10489000C170032101710221417101210180704722
:1048A0006649096841F00101644A116011460968CE
:1048B00043F60E729143614A11601146096841EA5C
:1048C000002111601146096821F001011160704753
:1048D00021B1026842F48032026003E0026822F4EF
:1048E000803202607047E1B1026842F080020260EB
:1048F0004FF4C272125842F480734FF4C2721350D4
:104900004FF4CA72125842F480734FF4CA721350B3
:104910004FF4D272125842F480734FF4D272135093
:104920001BE0026822F0800202604FF4C27212584B
:1049300022F480734FF4C27213504FF4CA721258AB
:1049400022F480734FF4CA7213504FF4D27212588B
:1049500022F480734FF4D2721350704710B50246A0
:104960000020936803F08063B3F1806F00D110E002
:10497000936803F00063B3F1006F01D1012008E0F8
:10498000936803F08053B3F1805F01D1022000E00F
:104990000420042879D002F5C07303EB00131B68D0
:1049A00003F0010402F5C07303EB00131C600B7AE3
:1049B0007BB94B7A0C8843EA445302F5C07404EB8C
:1049C00000142468234302F5C07404EB0014236030
:1049D00010E00B7A4C6843EAC4034C7A234302F597
:1049E000C07404EB00142468234302F5C07404EB84
:1049F000001423608B7A03F00F038B7202F5C073EF
:104A000003EB00135B6823F00F0402F5C07303EBA4
:104A100000135C6002F5C07303EB00135B688C7AD3
:104A2000234302F5C07404EB001463608B7B1C0607
:104A30004B7B44EA034403E000640040006600400E
:104A40000B7B44EA0323CC7A234302F5C07404EBC6
:104A50000014A3608B7C1C064B7C44EA03440B7C53
:104A600044EA0323CC7B234302F5C07404EB001417
:104A7000E36002F5C07303EB00131B6843F001040D
:104A800002F5C07303EB00131C6010BD10B50246A5
:104A9000002321B1012907D002290FD109E0906834
:104AA000F94C00EA04030BE09068F84C00EA0403B8
:104AB00006E09068F64C00EA040301E0002300BF22
:104AC00000BFF44C181BA34216D007DC83B16FF073
:104AD0008060184470B1022818D111E0B0F5007F51
:104AE00010D0ED4C204448B1B0F5003F0ED10BE0A2
:104AF00002230DE000230BE0002309E0002307E080
:104B0000012305E0012303E0012301E0002300BFAE
:104B100000BFD8B210BD21B1012907D002290FD1A1
:104B200009E0826842F0800282600AE0826842F412
:104B30000042826005E0826842F40002826000E088
:104B400000BF00BF704710B500F5D87303EB011329
:104B50001B6803F004031372137A53B900F5D8737A
:104B600003EB01131B6840F2FF7404EA5353136014
:104B700009E000F5D87303EB01131B686FF0604484
:104B800004EAD303536000F5D87303EB01131B68E9
:104B900003F00203537200F5D87303EB01135B6853
:104BA00003F00F03937200F5D87303EB01135B68F6
:104BB0001B0AD37400F5D87303EB01139B68D372FF
:104BC00000F5D87303EB01139B681C0A147300F5FE
:104BD000D87303EB01139B681C0C547300F5D87356
:104BE00003EB01139B681B0E937300F5D87303EB63
:104BF0000113DB68D37300F5D87303EB0113DB6893
:104C00001C0A147400F5D87303EB0113DB681C0C49
:104C1000547400F5D87303EB0113DB681B0E937417
:104C200021B9C36843F02003C36003E0036943F084
:104C30002003036110BD21B9C26842F02002C260A6
:104C400003E0026942F02002026170470246002040
:104C500019B9D36803F0030006E0012903D11369F1
:104C600003F0030000E00020704710B502460B4639
:104C700000204FF6FF71BBB9146824F0020444F021
:104C80000104146000E0491E546804F00304012C80
:104C900001D00029F7D1546804F00304012C01D09D
:104CA000002032E0012030E0012B13D1146824F001
:104CB0000304146000E0491E546804F003040CB1BE
:104CC0000029F8D1546804F003040CB100201CE062
:104CD00001201AE0022B17D1146824F0010444F0DB
:104CE0000204146000E0491E546804F00304022C1E
:104CF00001D00029F7D1546804F00304022C01D03C
:104D0000002002E0012000E0002010BD014600204C
:104D10000A6822F0010242F002020A604A6802F0C8
:104D20000302022A00D10120704701464FF6FF72AC
:104D300000200B6823F002030B6000E0521E4B685A
:104D400003F00203022B01D1002AF7D14B6803F0D4
:104D50000203022B00D001207047014600208A691F
:104D600002F070007047014600208A69100E7047FB
:104D7000014600208A69C2F3074070471AB14369AF
:104D80000B43436102E043698B434361704710B5B5
:104D90000246002001F4700343B19369C1F3130488
:104DA00023400BB101202DE000202BE001F08073A7
:104DB00043B15368C1F3130423400BB1012021E038
:104DC00000201FE001F0006343B19368C1F31304B6
:104DD00023400BB1012015E0002013E001F0007327
:104DE00043B1D368C1F3130423400BB1012009E0A0
:104DF000002007E01369C1F3130423400BB1012025
:104E000000E0002010BD0022244B994202D1002373
:104E1000836111E0C1F3130201F000730BB1C260B2
:104E20000AE001F080630BB1026105E001F000636C
:104E30000BB1826000E0426070470246002002EA47
:104E400001030BB1012000E00020704770B504465B
:104E50000D46002660692840002872D0B5F5807F95
:104E600069D01DDC082D42D006DC012D2DD0022D8D
:104E700031D0042D7FD134E0102D3ED0202D42D0F2
:104E8000402D78D145E00000030000040003000835
:104E900000000310000100080001FFF77000F0306F
:104EA000B5F5004F61D009DCB5F5007F4AD0B5F506
:104EB000806F4DD0B5F5006F5DD150E0B5F5803F06
:104EC0002DD0B5F5003F56D12FE0A0685549FFF72A
:104ED000B4FF064651E0E0680321FFF7AEFF064647
:104EE0004BE0E0680821FFF7A8FF064645E0E068D0
:104EF0001021FFF7A2FF06463FE020690321FFF7DC
:104F00009CFF064639E020690821FFF796FF064618
:104F100033E020691021FFF790FF06462DE060681E
:104F20000821FFF78AFF064627E060681021FFF797
:104F300084FF064621E0A0690121FFF77EFF0646B7
:104F40001BE01BE0A0690221FFF777FF064614E093
:104F5000A0690421FFF771FF06460EE00BE0A0698F
:104F60007021FFF76AFF064607E060680421FFF73B
:104F700064FF064601E0002600BF00E00026304640
:104F800070BDB1F5007F3AD00FDC202928D006DCB7
:104F900001291CD004291DD0082940D11DE0402939
:104FA00021D0B1F5807F3AD126E0B1F5004F31D064
:104FB00006DCB1F5806F25D0B1F5006F2FD124E06C
:104FC000B1F5803F12D0B1F5003F28D111E0154A6C
:104FD000826025E00822C26022E01022C2601FE049
:104FE000082202611CE01022026119E008224260DE
:104FF00016E01022426013E00422426010E0042216
:1050000042600DE0042242600AE000228261042234
:10501000426005E0002282610422426000E000BF9D
:1050200000BF70470101010010B50446FE488442EC
:1050300008D101210846FFF730F800210120FFF7D1
:105040002CF89DE0B4F1804F08D101210846FFF70C
:1050500013F800210120FFF70FF891E0F348844294
:1050600008D101210220FFF707F800210220FFF7F5
:1050700003F885E0EE48844208D101210420FEF7C0
:10508000FBFF00210420FEF7F7FF79E0E9488442A6
:1050900008D101210820FEF7EFFF00210820FEF7CC
:1050A000EBFF6DE0E448844208D101211020FEF7B7
:1050B000E3FF00211020FEF7DFFF61E0DF488442BC
:1050C00008D101212020FEF7D7FF00212020FEF784
:1050D000D3FF55E0DA48844208D101210220FEF7CF
:1050E000DCFF00210220FEF7D8FF49E0D5488442CA
:1050F00009D101210804FEF7D0FF00214FF48030D0
:10510000FEF7CBFF3CE0D048844209D1012148049E
:10511000FEF7C3FF00214FF40030FEF7BEFF2FE083
:10512000CA48844209D101218804FEF7B6FF002154
:105130004FF48020FEF7B1FF22E0C548844208D139
:1051400001214020FEF798FF00214020FEF794FF48
:1051500016E0C048844208D101218020FEF78CFF70
:1051600000218020FEF788FF0AE0BB48844207D177
:1051700001218015FEF780FF0021A015FEF77CFFBE
:1051800010BD00220288A84B98420ED0AC4B98422A
:105190000BD0B0F1804F08D0A44B984205D0A44B5F
:1051A000984202D0A34B984204D14FF68F731A4015
:1051B0004B881A43A04B984207D0A04B984204D08A
:1051C0004FF6FF431A400B891A4302804B68C362B3
:1051D0000B880385944B984202D0994B984201D199
:1051E0008B7A03860123838270474FF0FF31416041
:1051F0000021018001814180817270470185828296
:1052000070470A46002101884FF68F7319401143F9
:105210000180704741627047C16270470146486A29
:1052200070470146088D704721B1028842F00202A2
:10523000028004E002884FF6FD731A400280704736
:1052400021B1028842F00402028004E002884FF695
:10525000FB731A400280704721B1028842F080023D
:10526000028004E002884FF67F731A400280704784
:1052700002884FF6F7731A40028002880A430280C0
:10528000704702884FF6FF431A40028002880A43A3
:105290000280704721B1028842F00102028004E0DE
:1052A00002884FF6FE731A400280704770B50024E2
:1052B00000220023058C4FF6FE7635400584028CD3
:1052C0008388048B4FF68F752C40B51E2C400D88BB
:1052D0002C43751E2A408D892A434D882A43524DFE
:1052E000A84202D0564DA84213D14FF6F7752A4076
:1052F000CD892A434FF6FB752A408D882A434FF605
:10530000FF652B404FF6FF552B400D8A2B434D8AEE
:105310002B43838004838D684563028470BD70B520
:10532000002400220023058C4FF6EF7635400584DB
:10533000028C8388048B48F6FF752C404FF6FF459E
:105340002C400D884FF6FF7606EA05252C434FF6D4
:10535000DF752A408D8906EA05152A434D8806EA3D
:1053600005152A43304DA84202D0354DA8421DD123
:105370004FF67F752A40CD894FF6FF7606EA051570
:105380002A434FF6BF752A408D8806EA05152A4341
:105390004FF6FF352B404FF2FF752B400D8A06EA82
:1053A00085052B434D8A06EA85052B4383800483BC
:1053B0008D688563028470BD70B5002400220023CF
:1053C000058C4FF6FF6635400584028C8388848BFC
:1053D0004FF68F752C404FF6FC752C400D882C43F2
:1053E0004FF6FF552A408D894FF6FF7606EA0525D0
:1053F0002A434D8806EA05252A430B4DA84202D0D0
:105400000F4DA84238D14FF2FF752A40CD894FF693
:10541000FF7606EA05252A434FF6FF352A408D8898
:1054200006EA05252A4319E0000001400004004077
:1054300000080040000C0040001000400014004034
:105440000004014000400140004401400048014088
:1054500000180040001C0040002000404EF6FF7580
:105460002B404DF6FF752B400D8A06EA05152B43A0
:105470004D8A06EA05152B43838084838D68C563B6
:10548000028470BD70B5002200230024058C4EF606
:10549000FF7635400584038C8488828B48F6FF753F
:1054A0002A404FF6FF452A400D884FF6FF7606EA60
:1054B00005252A434DF6FF752B408D8906EA0535F3
:1054C0002B434D8806EA05352B43FE4DA84202D0FA
:1054D000FD4DA84208D14BF6FF752C400D8A4FF6C2
:1054E000FF7606EA85152C43848082838D680564E7
:1054F000038470BD002101804180818081608181B1
:10550000C18101824182704770B5034600200024AA
:105510001846183001258D40ACB21D8CA5431D8462
:1055200009B108290AD100EB610005684FF68F76B2
:10553000354005600568154305600FE00D1FC5F394
:105540004E052844056848F6FF7635400560056835
:105550004FF6FF7606EA02263543056070BD4163CB
:10556000704781637047C1637047016470470A46A2
:105570000021018B4FF68F7319401143018370474F
:105580000A460021018B48F6FF7319404FF6FF735E
:1055900003EA02231943018370470A460021818BE5
:1055A0004FF68F7319401143818370470A460021DB
:1055B000818B48F6FF7319404FF6FF7303EA02230D
:1055C0001943818370470A460021018B4FF6F77318
:1055D00019401143018370470A460021018B4FF2A5
:1055E000FF7319404FF6FF7303EA02231943018347
:1055F00070470A460021818B4FF6F773194011431B
:10560000818370470A460021818B4FF2FF73194056
:105610004FF6FF7303EA02231943818370470A465A
:105620000021018B4FF6FB73194011430183704732
:105630000A460021018B4FF6FF3319404FF6FF73E6
:1056400003EA02231943018370470A460021818B34
:105650004FF6FB7319401143818370470A460021BE
:10566000818B4FF6FF3319404FF6FF7303EA022395
:105670001943818370470A460021018B4FF67F73DF
:1056800019401143018370470A460021018BC1F381
:105690000E014FF6FF7303EA02231943018370479B
:1056A0000A460021818B4FF67F7319401143818395
:1056B00070470A460021818BC1F30E014FF6FF733C
:1056C00003EA02231943818370470A460021018CB3
:1056D0004FF6FD7319401143018470470A460021BB
:1056E000018C4FF6F77319401143018470470A4645
:1056F0000021018C4FF6DF7319404FF6FF7303EA68
:1057000002131943018470470A460021018C4FF6A9
:105710007F7319404FF6FF7303EA021319430184A4
:1057200070470A460021018C4FF6FF5319404FF68F
:10573000FF7303EA02231943018470470A460021DC
:10574000018C4FF2FF7319404FF6FF7303EA0223F7
:105750001943018470470A460021018C4DF6FF73FE
:1057600019404FF6FF7303EA02331943018470476F
:1057700030B5002301248C40A3B2048C9C430484E4
:10578000048C02FA01F5ADB22C43048430BD30B56F
:10579000002304248C40A3B2048C9C430484048C16
:1057A00002FA01F5ADB22C43048430BD828B4FF276
:1057B000FF331A408283828B4FF6FF7303EA012383
:1057C0001A4382837047F0B50C461546002100222B
:1057D0000026078C4EF6FF7C07EA0C070784818BB6
:1057E000028C4FF6FF7707EA043640F6FF47394050
:1057F0004FF6FF7707EA052739434FF6FF7707EAA9
:105800000337394345F6FF773A4046F480573A4329
:1058100081830284F0BD828B4FF6F3731A4082833A
:10582000828B0A4382837047F0B50C4615460021EF
:1058300000220026078C4FF6FF6C07EA0C0707844E
:10584000818B028C4FF6FF7707EA04264FF60C7720
:1058500039404FF6FF7707EA03172F4339434FF2DA
:10586000FF573A4046F480773A4381830284F0BD83
:10587000028B4FF2FF331A400283028B4FF6FF7305
:1058800003EA01231A4302837047F0B50C4615461C
:10589000002100220026078C4FF6EF7C07EA0C0758
:1058A0000784018B028C4FF6FF7707EA041640F657
:1058B000FF4739404FF6FF7707EA033739434FF682
:1058C000FF7703E0000001400004014007EA0527DC
:1058D00039434FF65F773A4046F010073A43018369
:1058E0000284F0BD028B4FF6F3731A400283028BE1
:1058F0000A4302837047F0B50C461546002100228A
:10590000068C4FF6FE773E400684018B028C4FF6E4
:105910000C7631407E1C06EA03162E4331434FF6C7
:10592000F576324044F00106324301830284F0BD33
:1059300070B505460C46208850B92389A288618835
:105940002846FFF7D8FFE1882846FFF7CBFF25E080
:10595000208804280AD12389A28861882846FFF775
:1059600094FFE1882846FFF783FF17E02088082886
:105970000AD12389A28861882846FFF755FFE1886C
:105980002846FFF748FF09E02389A2886188284656
:10599000FFF719FFE1882846FFF708FF70BD0021D7
:1059A00001804180012181800021C18001817047F7
:1059B0002DE9F04105460C4600260127608808B90C
:1059C000022600E00026A088012801D1022700E07D
:1059D00001272088A0B92389A28861882846FFF77B
:1059E0008AFFE1882846FFF77DFF23893A46314642
:1059F0002846FFF74AFFE1882846FFF739FF13E002
:105A00002389A28861882846FFF73FFFE18828465E
:105A1000FFF72EFF23893A4631462846FFF76BFFF2
:105A2000E1882846FFF75EFFBDE8F0810146486B3C
:105A300070470146886B70470146C86B7047014646
:105A4000086C70470A884B881A438B881A43CB88A6
:105A50001A430B891A434B891A438B891A43A0F8BE
:105A6000442070470021018041808180C1800181F4
:105A700041818181704731B1B0F8442042F4004245
:105A8000A0F8442005E0B0F84420C2F30E02A0F8CC
:105A90004420704721B1828842F00402828004E0F1
:105AA00082884FF6FB731A408280704721B182884A
:105AB00042F00102828004E082884FF6FE731A40B1
:105AC000828070471AB183890B43838102E0838906
:105AD0008B43838170478182704702460020138A7E
